{"contracts/Launchpad.sol":{"Launchpad":{"abi":[{"inputs":[],"stateMutability":"nonpayable","type":"constructor"},{"anonymous":false,"inputs":[{"indexed":true,"internalType":"address","name":"previousOwner","type":"address"},{"indexed":true,"internalType":"address","name":"newOwner","type":"address"}],"name":"OwnershipTransferred","type":"event"},{"inputs":[{"internalType":"string","name":"_name","type":"string"},{"internalType":"uint256","name":"_amount","type":"uint256"}],"name":"buyToken","outputs":[],"stateMutability":"payable","type":"function"},{"inputs":[{"internalType":"string","name":"_name","type":"string"},{"internalType":"string","name":"_symbol","type":"string"},{"internalType":"uint256","name":"_tokenPrice","type":"uint256"},{"internalType":"uint256","name":"_goal","type":"uint256"},{"internalType":"uint256","name":"_endTime","type":"uint256"}],"name":"createICO","outputs":[],"stateMutability":"nonpayable","type":"function"},{"inputs":[],"name":"owner","outputs":[{"internalType":"address","name":"","type":"address"}],"stateMutability":"view","type":"function"},{"inputs":[{"internalType":"string","name":"","type":"string"}],"name":"projectInfo","outputs":[{"internalType":"address","name":"token","type":"address"},{"internalType":"address","name":"owner","type":"address"},{"internalType":"uint256","name":"tokenPrice","type":"uint256"},{"internalType":"uint256","name":"goal","type":"uint256"},{"internalType":"uint256","name":"startTime","type":"uint256"},{"internalType":"uint256","name":"endTime","type":"uint256"},{"internalType":"uint256","name":"currentBal","type":"uint256"}],"stateMutability":"view","type":"function"},{"inputs":[],"name":"renounceOwnership","outputs":[],"stateMutability":"nonpayable","type":"function"},{"inputs":[{"internalType":"address","name":"newOwner","type":"address"}],"name":"transferOwnership","outputs":[],"stateMutability":"nonpayable","type":"function"},{"inputs":[{"internalType":"string","name":"_name","type":"string"}],"name":"withdrawFunds","outputs":[],"stateMutability":"nonpayable","type":"function"},{"inputs":[{"internalType":"string","name":"_name","type":"string"}],"name":"withdrawOwner","outputs":[],"stateMutability":"nonpayable","type":"function"}],"evm":{"bytecode":{"linkReferences":{},"object":"608060405234801561001057600080fd5b5061002d61002261003960201b60201c565b61004160201b60201c565b60018081905550610105565b600033905090565b60008060009054906101000a900473ffffffffffffffffffffffffffffffffffffffff169050816000806101000a81548173ffffffffffffffffffffffffffffffffffffffff021916908373ffffffffffffffffffffffffffffffffffffffff1602179055508173ffffffffffffffffffffffffffffffffffffffff168173ffffffffffffffffffffffffffffffffffffffff167f8be0079c531659141344cd1fd0a4f28419497f9722a3daafe3b4186f6b6457e060405160405180910390a35050565b61374d80620001156000396000f3fe608060405260043610620000865760003560e01c8063715018a61162000055578063715018a614620001515780638da5cb5b146200016b578063cb309094146200019b578063f2fde38b14620001c95762000086565b806303b86b5a146200008b57806309be770714620000b95780631fa5846f14620000d95780635e7535451462000107575b600080fd5b3480156200009857600080fd5b50620000b76004803603810190620000b19190620010d8565b620001f7565b005b620000d76004803603810190620000d1919062001164565b62000580565b005b348015620000e657600080fd5b50620001056004803603810190620000ff9190620011ca565b62000751565b005b3480156200011457600080fd5b506200013360048036038101906200012d9190620010d8565b620009f5565b604051620001489796959493929190620012e6565b60405180910390f35b3480156200015e57600080fd5b506200016962000a8d565b005b3480156200017857600080fd5b506200018362000aa5565b60405162000192919062001363565b60405180910390f35b348015620001a857600080fd5b50620001c76004803603810190620001c19190620010d8565b62000ace565b005b348015620001d657600080fd5b50620001f56004803603810190620001ef9190620013b1565b62000d1e565b005b6200020162000da8565b6002816040516200021391906200145c565b908152602001604051809103902060050154421162000269576040517f08c379a00000000000000000000000000000000000000000000000000000000081526004016200026090620014d6565b60405180910390fd5b6002816040516200027b91906200145c565b9081526020016040518091039020600301546002826040516200029f91906200145c565b90815260200160405180910390206006015410620002f4576040517f08c379a0000000000000000000000000000000000000000000000000000000008152600401620002eb9062001548565b60405180910390fd5b60006002826040516200030891906200145c565b908152602001604051809103902060000160009054906101000a900473ffffffffffffffffffffffffffffffffffffffff1673ffffffffffffffffffffffffffffffffffffffff166370a08231336040518263ffffffff1660e01b815260040162000374919062001363565b602060405180830381865afa15801562000392573d6000803e3d6000fd5b505050506040513d601f19601f82011682018060405250810190620003b8919062001581565b9050600282604051620003cc91906200145c565b908152602001604051809103902060000160009054906101000a900473ffffffffffffffffffffffffffffffffffffffff1673ffffffffffffffffffffffffffffffffffffffff166323b872dd3330846040518463ffffffff1660e01b81526004016200043c93929190620015b3565b6020604051808303816000875af11580156200045c573d6000803e3d6000fd5b505050506040513d601f19601f820116820180604052508101906200048291906200162d565b506000816002846040516200049891906200145c565b908152602001604051809103902060020154620004b691906200168e565b905060003373ffffffffffffffffffffffffffffffffffffffff166108fc839081150290604051600060405180830381858888f1935050505090508062000534576040517f08c379a00000000000000000000000000000000000000000000000000000000081526004016200052b9062001729565b60405180910390fd5b816002856040516200054791906200145c565b908152602001604051809103902060060160008282546200056991906200174b565b925050819055505050506200057d62000dfa565b50565b806002836040516200059391906200145c565b908152602001604051809103902060020154620005b191906200168e565b3414620005f5576040517f08c379a0000000000000000000000000000000000000000000000000000000008152600401620005ec90620017d6565b60405180910390fd5b426002836040516200060891906200145c565b908152602001604051809103902060050154116200065d576040517f08c379a0000000000000000000000000000000000000000000000000000000008152600401620006549062001848565b60405180910390fd5b6002826040516200066f91906200145c565b908152602001604051809103902060000160009054906101000a900473ffffffffffffffffffffffffffffffffffffffff1673ffffffffffffffffffffffffffffffffffffffff166340c10f1933836040518363ffffffff1660e01b8152600401620006dd9291906200186a565b600060405180830381600087803b158015620006f857600080fd5b505af11580156200070d573d6000803e3d6000fd5b50505050346002836040516200072491906200145c565b9081526020016040518091039020600601600082825462000746919062001897565b925050819055505050565b600073ffffffffffffffffffffffffffffffffffffffff166002866040516200077b91906200145c565b908152602001604051809103902060010160009054906101000a900473ffffffffffffffffffffffffffffffffffffffff1673ffffffffffffffffffffffffffffffffffffffff161462000806576040517f08c379a0000000000000000000000000000000000000000000000000000000008152600401620007fd9062001922565b60405180910390fd5b4281118015620008165750600082115b8015620008235750600083115b62000865576040517f08c379a00000000000000000000000000000000000000000000000000000000081526004016200085c9062001994565b60405180910390fd5b60008585604051620008779062000f54565b62000884929190620019f7565b604051809103906000f080158015620008a1573d6000803e3d6000fd5b50905060006040518060e001604052808373ffffffffffffffffffffffffffffffffffffffff1681526020013373ffffffffffffffffffffffffffffffffffffffff16815260200186815260200185815260200142815260200184815260200160008152509050806002886040516200091b91906200145c565b908152602001604051809103902060008201518160000160006101000a81548173ffffffffffffffffffffffffffffffffffffffff021916908373ffffffffffffffffffffffffffffffffffffffff16021790555060208201518160010160006101000a81548173ffffffffffffffffffffffffffffffffffffffff021916908373ffffffffffffffffffffffffffffffffffffffff16021790555060408201518160020155606082015181600301556080820151816004015560a0820151816005015560c0820151816006015590505050505050505050565b6002818051602081018201805184825260208301602085012081835280955050505050506000915090508060000160009054906101000a900473ffffffffffffffffffffffffffffffffffffffff16908060010160009054906101000a900473ffffffffffffffffffffffffffffffffffffffff16908060020154908060030154908060040154908060050154908060060154905087565b62000a9762000e03565b62000aa3600062000e88565b565b60008060009054906101000a900473ffffffffffffffffffffffffffffffffffffffff16905090565b62000ad862000da8565b60028160405162000aea91906200145c565b908152602001604051809103902060010160009054906101000a900473ffffffffffffffffffffffffffffffffffffffff1673ffffffffffffffffffffffffffffffffffffffff163373ffffffffffffffffffffffffffffffffffffffff161462000b8c576040517f08c379a000000000000000000000000000000000000000000000000000000000815260040162000b839062001a82565b60405180910390fd5b4260028260405162000b9f91906200145c565b9081526020016040518091039020600501541062000bf4576040517f08c379a000000000000000000000000000000000000000000000000000000000815260040162000beb9062001af4565b60405180910390fd5b60028160405162000c0691906200145c565b90815260200160405180910390206003015460028260405162000c2a91906200145c565b908152602001604051809103902060060154101562000c80576040517f08c379a000000000000000000000000000000000000000000000000000000000815260040162000c779062001b66565b60405180910390fd5b60003373ffffffffffffffffffffffffffffffffffffffff166108fc60028460405162000cae91906200145c565b9081526020016040518091039020600601549081150290604051600060405180830381858888f1935050505090508062000ce757600080fd5b600060028360405162000cfb91906200145c565b9081526020016040518091039020600601819055505062000d1b62000dfa565b50565b62000d2862000e03565b600073ffffffffffffffffffffffffffffffffffffffff168173ffffffffffffffffffffffffffffffffffffffff160362000d9a576040517f08c379a000000000000000000000000000000000000000000000000000000000815260040162000d919062001bfe565b60405180910390fd5b62000da58162000e88565b50565b60026001540362000df0576040517f08c379a000000000000000000000000000000000000000000000000000000000815260040162000de79062001c70565b60405180910390fd5b6002600181905550565b60018081905550565b62000e0d62000f4c565b73ffffffffffffffffffffffffffffffffffffffff1662000e2d62000aa5565b73ffffffffffffffffffffffffffffffffffffffff161462000e86576040517f08c379a000000000000000000000000000000000000000000000000000000000815260040162000e7d9062001ce2565b60405180910390fd5b565b60008060009054906101000a900473ffffffffffffffffffffffffffffffffffffffff169050816000806101000a81548173ffffffffffffffffffffffffffffffffffffffff021916908373ffffffffffffffffffffffffffffffffffffffff1602179055508173ffffffffffffffffffffffffffffffffffffffff168173ffffffffffffffffffffffffffffffffffffffff167f8be0079c531659141344cd1fd0a4f28419497f9722a3daafe3b4186f6b6457e060405160405180910390a35050565b600033905090565b611a138062001d0583390190565b6000604051905090565b600080fd5b600080fd5b600080fd5b600080fd5b6000601f19601f8301169050919050565b7f4e487b7100000000000000000000000000000000000000000000000000000000600052604160045260246000fd5b62000fcb8262000f80565b810181811067ffffffffffffffff8211171562000fed5762000fec62000f91565b5b80604052505050565b60006200100262000f62565b905062001010828262000fc0565b919050565b600067ffffffffffffffff82111562001033576200103262000f91565b5b6200103e8262000f80565b9050602081019050919050565b82818337600083830152505050565b6000620010716200106b8462001015565b62000ff6565b90508281526020810184848401111562001090576200108f62000f7b565b5b6200109d8482856200104b565b509392505050565b600082601f830112620010bd57620010bc62000f76565b5b8135620010cf8482602086016200105a565b91505092915050565b600060208284031215620010f157620010f062000f6c565b5b600082013567ffffffffffffffff81111562001112576200111162000f71565b5b6200112084828501620010a5565b91505092915050565b6000819050919050565b6200113e8162001129565b81146200114a57600080fd5b50565b6000813590506200115e8162001133565b92915050565b600080604083850312156200117e576200117d62000f6c565b5b600083013567ffffffffffffffff8111156200119f576200119e62000f71565b5b620011ad85828601620010a5565b9250506020620011c0858286016200114d565b9150509250929050565b600080600080600060a08688031215620011e957620011e862000f6c565b5b600086013567ffffffffffffffff8111156200120a576200120962000f71565b5b6200121888828901620010a5565b955050602086013567ffffffffffffffff8111156200123c576200123b62000f71565b5b6200124a88828901620010a5565b94505060406200125d888289016200114d565b935050606062001270888289016200114d565b925050608062001283888289016200114d565b9150509295509295909350565b600073ffffffffffffffffffffffffffffffffffffffff82169050919050565b6000620012bd8262001290565b9050919050565b620012cf81620012b0565b82525050565b620012e08162001129565b82525050565b600060e082019050620012fd600083018a620012c4565b6200130c6020830189620012c4565b6200131b6040830188620012d5565b6200132a6060830187620012d5565b620013396080830186620012d5565b6200134860a0830185620012d5565b6200135760c0830184620012d5565b98975050505050505050565b60006020820190506200137a6000830184620012c4565b92915050565b6200138b81620012b0565b81146200139757600080fd5b50565b600081359050620013ab8162001380565b92915050565b600060208284031215620013ca57620013c962000f6c565b5b6000620013da848285016200139a565b91505092915050565b600081519050919050565b600081905092915050565b60005b8381101562001419578082015181840152602081019050620013fc565b60008484015250505050565b60006200143282620013e3565b6200143e8185620013ee565b935062001450818560208601620013f9565b80840191505092915050565b60006200146a828462001425565b915081905092915050565b600082825260208201905092915050565b7f73616c6520686173206e6f7420656e6465640000000000000000000000000000600082015250565b6000620014be60128362001475565b9150620014cb8262001486565b602082019050919050565b60006020820190508181036000830152620014f181620014af565b9050919050565b7f53616c65205375636365737366756c6c7920636f6d706c657465640000000000600082015250565b600062001530601b8362001475565b91506200153d82620014f8565b602082019050919050565b60006020820190508181036000830152620015638162001521565b9050919050565b6000815190506200157b8162001133565b92915050565b6000602082840312156200159a576200159962000f6c565b5b6000620015aa848285016200156a565b91505092915050565b6000606082019050620015ca6000830186620012c4565b620015d96020830185620012c4565b620015e86040830184620012d5565b949350505050565b60008115159050919050565b6200160781620015f0565b81146200161357600080fd5b50565b6000815190506200162781620015fc565b92915050565b60006020828403121562001646576200164562000f6c565b5b6000620016568482850162001616565b91505092915050565b7f4e487b7100000000000000000000000000000000000000000000000000000000600052601160045260246000fd5b60006200169b8262001129565b9150620016a88362001129565b9250828202620016b88162001129565b91508282048414831517620016d257620016d16200165f565b5b5092915050565b7f6661696c65640000000000000000000000000000000000000000000000000000600082015250565b60006200171160068362001475565b91506200171e82620016d9565b602082019050919050565b60006020820190508181036000830152620017448162001702565b9050919050565b6000620017588262001129565b9150620017658362001129565b925082820390508181111562001780576200177f6200165f565b5b92915050565b7f696e73756666696369656e742066756e64732000000000000000000000000000600082015250565b6000620017be60138362001475565b9150620017cb8262001786565b602082019050919050565b60006020820190508181036000830152620017f181620017af565b9050919050565b7f53616c652068617320656e646564000000000000000000000000000000000000600082015250565b600062001830600e8362001475565b91506200183d82620017f8565b602082019050919050565b60006020820190508181036000830152620018638162001821565b9050919050565b6000604082019050620018816000830185620012c4565b620018906020830184620012d5565b9392505050565b6000620018a48262001129565b9150620018b18362001129565b9250828201905080821115620018cc57620018cb6200165f565b5b92915050565b7f4e616d6520616c72656164792065786973747300000000000000000000000000600082015250565b60006200190a60138362001475565b91506200191782620018d2565b602082019050919050565b600060208201905081810360008301526200193d81620018fb565b9050919050565b7f496e61766c696420706172616d73000000000000000000000000000000000000600082015250565b60006200197c600e8362001475565b9150620019898262001944565b602082019050919050565b60006020820190508181036000830152620019af816200196d565b9050919050565b6000620019c382620013e3565b620019cf818562001475565b9350620019e1818560208601620013f9565b620019ec8162000f80565b840191505092915050565b6000604082019050818103600083015262001a138185620019b6565b9050818103602083015262001a298184620019b6565b90509392505050565b7f6f6e6c79206f776e65722063616e207769746864726177000000000000000000600082015250565b600062001a6a60178362001475565b915062001a778262001a32565b602082019050919050565b6000602082019050818103600083015262001a9d8162001a5b565b9050919050565b7f73616c6520686173206e6f7420656e6465642079657400000000000000000000600082015250565b600062001adc60168362001475565b915062001ae98262001aa4565b602082019050919050565b6000602082019050818103600083015262001b0f8162001acd565b9050919050565b7f53616c65206973206e6f74207375636365737366756c21000000000000000000600082015250565b600062001b4e60178362001475565b915062001b5b8262001b16565b602082019050919050565b6000602082019050818103600083015262001b818162001b3f565b9050919050565b7f4f776e61626c653a206e6577206f776e657220697320746865207a65726f206160008201527f6464726573730000000000000000000000000000000000000000000000000000602082015250565b600062001be660268362001475565b915062001bf38262001b88565b604082019050919050565b6000602082019050818103600083015262001c198162001bd7565b9050919050565b7f5265656e7472616e637947756172643a207265656e7472616e742063616c6c00600082015250565b600062001c58601f8362001475565b915062001c658262001c20565b602082019050919050565b6000602082019050818103600083015262001c8b8162001c49565b9050919050565b7f4f776e61626c653a2063616c6c6572206973206e6f7420746865206f776e6572600082015250565b600062001cca60208362001475565b915062001cd78262001c92565b602082019050919050565b6000602082019050818103600083015262001cfd8162001cbb565b905091905056fe60806040523480156200001157600080fd5b5060405162001a1338038062001a138339818101604052810190620000379190620001fa565b818181600390816200004a9190620004ca565b5080600490816200005c9190620004ca565b5050505050620005b1565b6000604051905090565b600080fd5b600080fd5b600080fd5b600080fd5b6000601f19601f8301169050919050565b7f4e487b7100000000000000000000000000000000000000000000000000000000600052604160045260246000fd5b620000d08262000085565b810181811067ffffffffffffffff82111715620000f257620000f162000096565b5b80604052505050565b60006200010762000067565b9050620001158282620000c5565b919050565b600067ffffffffffffffff82111562000138576200013762000096565b5b620001438262000085565b9050602081019050919050565b60005b838110156200017057808201518184015260208101905062000153565b60008484015250505050565b6000620001936200018d846200011a565b620000fb565b905082815260208101848484011115620001b257620001b162000080565b5b620001bf84828562000150565b509392505050565b600082601f830112620001df57620001de6200007b565b5b8151620001f18482602086016200017c565b91505092915050565b6000806040838503121562000214576200021362000071565b5b600083015167ffffffffffffffff81111562000235576200023462000076565b5b6200024385828601620001c7565b925050602083015167ffffffffffffffff81111562000267576200026662000076565b5b6200027585828601620001c7565b9150509250929050565b600081519050919050565b7f4e487b7100000000000000000000000000000000000000000000000000000000600052602260045260246000fd5b60006002820490506001821680620002d257607f821691505b602082108103620002e857620002e76200028a565b5b50919050565b60008190508160005260206000209050919050565b60006020601f8301049050919050565b600082821b905092915050565b600060088302620003527fffffffffffffffffffffffffffffffffffffffffffffffffffffffffffffffff8262000313565b6200035e868362000313565b95508019841693508086168417925050509392505050565b6000819050919050565b6000819050919050565b6000620003ab620003a56200039f8462000376565b62000380565b62000376565b9050919050565b6000819050919050565b620003c7836200038a565b620003df620003d682620003b2565b84845462000320565b825550505050565b600090565b620003f6620003e7565b62000403818484620003bc565b505050565b5b818110156200042b576200041f600082620003ec565b60018101905062000409565b5050565b601f8211156200047a576200044481620002ee565b6200044f8462000303565b810160208510156200045f578190505b620004776200046e8562000303565b83018262000408565b50505b505050565b600082821c905092915050565b60006200049f600019846008026200047f565b1980831691505092915050565b6000620004ba83836200048c565b9150826002028217905092915050565b620004d5826200027f565b67ffffffffffffffff811115620004f157620004f062000096565b5b620004fd8254620002b9565b6200050a8282856200042f565b600060209050601f8311600181146200054257600084156200052d578287015190505b620005398582620004ac565b865550620005a9565b601f1984166200055286620002ee565b60005b828110156200057c5784890151825560018201915060208501945060208101905062000555565b868310156200059c578489015162000598601f8916826200048c565b8355505b6001600288020188555050505b505050505050565b61145280620005c16000396000f3fe608060405234801561001057600080fd5b50600436106100b45760003560e01c806370a082311161007157806370a08231146101a357806395d89b41146101d357806397304ced146101f1578063a457c2d71461020d578063a9059cbb1461023d578063dd62ed3e1461026d576100b4565b806306fdde03146100b9578063095ea7b3146100d757806318160ddd1461010757806323b872dd14610125578063313ce567146101555780633950935114610173575b600080fd5b6100c161029d565b6040516100ce9190610c96565b60405180910390f35b6100f160048036038101906100ec9190610d51565b61032f565b6040516100fe9190610dac565b60405180910390f35b61010f610352565b60405161011c9190610dd6565b60405180910390f35b61013f600480360381019061013a9190610df1565b61035c565b60405161014c9190610dac565b60405180910390f35b61015d61038b565b60405161016a9190610e60565b60405180910390f35b61018d60048036038101906101889190610d51565b610394565b60405161019a9190610dac565b60405180910390f35b6101bd60048036038101906101b89190610e7b565b6103cb565b6040516101ca9190610dd6565b60405180910390f35b6101db610413565b6040516101e89190610c96565b60405180910390f35b61020b60048036038101906102069190610ea8565b6104a5565b005b61022760048036038101906102229190610d51565b6104b2565b6040516102349190610dac565b60405180910390f35b61025760048036038101906102529190610d51565b610529565b6040516102649190610dac565b60405180910390f35b61028760048036038101906102829190610ed5565b61054c565b6040516102949190610dd6565b60405180910390f35b6060600380546102ac90610f44565b80601f01602080910402602001604051908101604052809291908181526020018280546102d890610f44565b80156103255780601f106102fa57610100808354040283529160200191610325565b820191906000526020600020905b81548152906001019060200180831161030857829003601f168201915b5050505050905090565b60008061033a6105d3565b90506103478185856105db565b600191505092915050565b6000600254905090565b6000806103676105d3565b90506103748582856107a4565b61037f858585610830565b60019150509392505050565b60006012905090565b60008061039f6105d3565b90506103c08185856103b1858961054c565b6103bb9190610fa4565b6105db565b600191505092915050565b60008060008373ffffffffffffffffffffffffffffffffffffffff1673ffffffffffffffffffffffffffffffffffffffff168152602001908152602001600020549050919050565b60606004805461042290610f44565b80601f016020809104026020016040519081016040528092919081815260200182805461044e90610f44565b801561049b5780601f106104705761010080835404028352916020019161049b565b820191906000526020600020905b81548152906001019060200180831161047e57829003601f168201915b5050505050905090565b6104af3382610aa6565b50565b6000806104bd6105d3565b905060006104cb828661054c565b905083811015610510576040517f08c379a00000000000000000000000000000000000000000000000000000000081526004016105079061104a565b60405180910390fd5b61051d82868684036105db565b60019250505092915050565b6000806105346105d3565b9050610541818585610830565b600191505092915050565b6000600160008473ffffffffffffffffffffffffffffffffffffffff1673ffffffffffffffffffffffffffffffffffffffff16815260200190815260200160002060008373ffffffffffffffffffffffffffffffffffffffff1673ffffffffffffffffffffffffffffffffffffffff16815260200190815260200160002054905092915050565b600033905090565b600073ffffffffffffffffffffffffffffffffffffffff168373ffffffffffffffffffffffffffffffffffffffff160361064a576040517f08c379a0000000000000000000000000000000000000000000000000000000008152600401610641906110dc565b60405180910390fd5b600073ffffffffffffffffffffffffffffffffffffffff168273ffffffffffffffffffffffffffffffffffffffff16036106b9576040517f08c379a00000000000000000000000000000000000000000000000000000000081526004016106b09061116e565b60405180910390fd5b80600160008573ffffffffffffffffffffffffffffffffffffffff1673ffffffffffffffffffffffffffffffffffffffff16815260200190815260200160002060008473ffffffffffffffffffffffffffffffffffffffff1673ffffffffffffffffffffffffffffffffffffffff168152602001908152602001600020819055508173ffffffffffffffffffffffffffffffffffffffff168373ffffffffffffffffffffffffffffffffffffffff167f8c5be1e5ebec7d5bd14f71427d1e84f3dd0314c0f7b2291e5b200ac8c7c3b925836040516107979190610dd6565b60405180910390a3505050565b60006107b0848461054c565b90507fffffffffffffffffffffffffffffffffffffffffffffffffffffffffffffffff811461082a578181101561081c576040517f08c379a0000000000000000000000000000000000000000000000000000000008152600401610813906111da565b60405180910390fd5b61082984848484036105db565b5b50505050565b600073ffffffffffffffffffffffffffffffffffffffff168373ffffffffffffffffffffffffffffffffffffffff160361089f576040517f08c379a00000000000000000000000000000000000000000000000000000000081526004016108969061126c565b60405180910390fd5b600073ffffffffffffffffffffffffffffffffffffffff168273ffffffffffffffffffffffffffffffffffffffff160361090e576040517f08c379a0000000000000000000000000000000000000000000000000000000008152600401610905906112fe565b60405180910390fd5b610919838383610bfc565b60008060008573ffffffffffffffffffffffffffffffffffffffff1673ffffffffffffffffffffffffffffffffffffffff1681526020019081526020016000205490508181101561099f576040517f08c379a000000000000000000000000000000000000000000000000000000000815260040161099690611390565b60405180910390fd5b8181036000808673ffffffffffffffffffffffffffffffffffffffff1673ffffffffffffffffffffffffffffffffffffffff16815260200190815260200160002081905550816000808573ffffffffffffffffffffffffffffffffffffffff1673ffffffffffffffffffffffffffffffffffffffff168152602001908152602001600020600082825401925050819055508273ffffffffffffffffffffffffffffffffffffffff168473ffffffffffffffffffffffffffffffffffffffff167fddf252ad1be2c89b69c2b068fc378daa952ba7f163c4a11628f55a4df523b3ef84604051610a8d9190610dd6565b60405180910390a3610aa0848484610c01565b50505050565b600073ffffffffffffffffffffffffffffffffffffffff168273ffffffffffffffffffffffffffffffffffffffff1603610b15576040517f08c379a0000000000000000000000000000000000000000000000000000000008152600401610b0c906113fc565b60405180910390fd5b610b2160008383610bfc565b8060026000828254610b339190610fa4565b92505081905550806000808473ffffffffffffffffffffffffffffffffffffffff1673ffffffffffffffffffffffffffffffffffffffff168152602001908152602001600020600082825401925050819055508173ffffffffffffffffffffffffffffffffffffffff16600073ffffffffffffffffffffffffffffffffffffffff167fddf252ad1be2c89b69c2b068fc378daa952ba7f163c4a11628f55a4df523b3ef83604051610be49190610dd6565b60405180910390a3610bf860008383610c01565b5050565b505050565b505050565b600081519050919050565b600082825260208201905092915050565b60005b83811015610c40578082015181840152602081019050610c25565b60008484015250505050565b6000601f19601f8301169050919050565b6000610c6882610c06565b610c728185610c11565b9350610c82818560208601610c22565b610c8b81610c4c565b840191505092915050565b60006020820190508181036000830152610cb08184610c5d565b905092915050565b600080fd5b600073ffffffffffffffffffffffffffffffffffffffff82169050919050565b6000610ce882610cbd565b9050919050565b610cf881610cdd565b8114610d0357600080fd5b50565b600081359050610d1581610cef565b92915050565b6000819050919050565b610d2e81610d1b565b8114610d3957600080fd5b50565b600081359050610d4b81610d25565b92915050565b60008060408385031215610d6857610d67610cb8565b5b6000610d7685828601610d06565b9250506020610d8785828601610d3c565b9150509250929050565b60008115159050919050565b610da681610d91565b82525050565b6000602082019050610dc16000830184610d9d565b92915050565b610dd081610d1b565b82525050565b6000602082019050610deb6000830184610dc7565b92915050565b600080600060608486031215610e0a57610e09610cb8565b5b6000610e1886828701610d06565b9350506020610e2986828701610d06565b9250506040610e3a86828701610d3c565b9150509250925092565b600060ff82169050919050565b610e5a81610e44565b82525050565b6000602082019050610e756000830184610e51565b92915050565b600060208284031215610e9157610e90610cb8565b5b6000610e9f84828501610d06565b91505092915050565b600060208284031215610ebe57610ebd610cb8565b5b6000610ecc84828501610d3c565b91505092915050565b60008060408385031215610eec57610eeb610cb8565b5b6000610efa85828601610d06565b9250506020610f0b85828601610d06565b9150509250929050565b7f4e487b7100000000000000000000000000000000000000000000000000000000600052602260045260246000fd5b60006002820490506001821680610f5c57607f821691505b602082108103610f6f57610f6e610f15565b5b50919050565b7f4e487b7100000000000000000000000000000000000000000000000000000000600052601160045260246000fd5b6000610faf82610d1b565b9150610fba83610d1b565b9250828201905080821115610fd257610fd1610f75565b5b92915050565b7f45524332303a2064656372656173656420616c6c6f77616e63652062656c6f7760008201527f207a65726f000000000000000000000000000000000000000000000000000000602082015250565b6000611034602583610c11565b915061103f82610fd8565b604082019050919050565b6000602082019050818103600083015261106381611027565b9050919050565b7f45524332303a20617070726f76652066726f6d20746865207a65726f2061646460008201527f7265737300000000000000000000000000000000000000000000000000000000602082015250565b60006110c6602483610c11565b91506110d18261106a565b604082019050919050565b600060208201905081810360008301526110f5816110b9565b9050919050565b7f45524332303a20617070726f766520746f20746865207a65726f20616464726560008201527f7373000000000000000000000000000000000000000000000000000000000000602082015250565b6000611158602283610c11565b9150611163826110fc565b604082019050919050565b600060208201905081810360008301526111878161114b565b9050919050565b7f45524332303a20696e73756666696369656e7420616c6c6f77616e6365000000600082015250565b60006111c4601d83610c11565b91506111cf8261118e565b602082019050919050565b600060208201905081810360008301526111f3816111b7565b9050919050565b7f45524332303a207472616e736665722066726f6d20746865207a65726f20616460008201527f6472657373000000000000000000000000000000000000000000000000000000602082015250565b6000611256602583610c11565b9150611261826111fa565b604082019050919050565b6000602082019050818103600083015261128581611249565b9050919050565b7f45524332303a207472616e7366657220746f20746865207a65726f206164647260008201527f6573730000000000000000000000000000000000000000000000000000000000602082015250565b60006112e8602383610c11565b91506112f38261128c565b604082019050919050565b60006020820190508181036000830152611317816112db565b9050919050565b7f45524332303a207472616e7366657220616d6f756e742065786365656473206260008201527f616c616e63650000000000000000000000000000000000000000000000000000602082015250565b600061137a602683610c11565b91506113858261131e565b604082019050919050565b600060208201905081810360008301526113a98161136d565b9050919050565b7f45524332303a206d696e7420746f20746865207a65726f206164647265737300600082015250565b60006113e6601f83610c11565b91506113f1826113b0565b602082019050919050565b60006020820190508181036000830152611415816113d9565b905091905056fea264697066735822122038574d7b78374d5f47a1c30bd00b03a22683b81e013510b24d53be34577b359b64736f6c63430008120033a26469706673582212204c7952cfdbda67182ab36b39ca94b2ad4cd4152a80476dd01dfc8f7a90b6edaf64736f6c63430008120033","opcodes":"PUSH1 0x80 PUSH1 0x40 MSTORE CALLVALUE DUP1 ISZERO PUSH2 0x10 JUMPI PUSH1 0x0 DUP1 REVERT JUMPDEST POP PUSH2 0x2D PUSH2 0x22 PUSH2 0x39 PUSH1 0x20 SHL PUSH1 0x20 SHR JUMP JUMPDEST PUSH2 0x41 PUSH1 0x20 SHL PUSH1 0x20 SHR JUMP JUMPDEST PUSH1 0x1 DUP1 DUP2 SWAP1 SSTORE POP PUSH2 0x105 JUMP JUMPDEST PUSH1 0x0 CALLER SWAP1 POP SWAP1 JUMP JUMPDEST PUSH1 0x0 DUP1 PUSH1 0x0 SWAP1 SLOAD SWAP1 PUSH2 0x100 EXP SWAP1 DIV PUSH20 0xFFFFFFFFFFFFFFFFFFFFFFFFFFFFFFFFFFFFFFFF AND SWAP1 POP DUP2 PUSH1 0x0 DUP1 PUSH2 0x100 EXP DUP2 SLOAD DUP2 PUSH20 0xFFFFFFFFFFFFFFFFFFFFFFFFFFFFFFFFFFFFFFFF MUL NOT AND SWAP1 DUP4 PUSH20 0xFFFFFFFFFFFFFFFFFFFFFFFFFFFFFFFFFFFFFFFF AND MUL OR SWAP1 SSTORE POP DUP2 PUSH20 0xFFFFFFFFFFFFFFFFFFFFFFFFFFFFFFFFFFFFFFFF AND DUP2 PUSH20 0xFFFFFFFFFFFFFFFFFFFFFFFFFFFFFFFFFFFFFFFF AND PUSH32 0x8BE0079C531659141344CD1FD0A4F28419497F9722A3DAAFE3B4186F6B6457E0 PUSH1 0x40 MLOAD PUSH1 0x40 MLOAD DUP1 SWAP2 SUB SWAP1 LOG3 POP POP JUMP JUMPDEST PUSH2 0x374D DUP1 PUSH3 0x115 PUSH1 0x0 CODECOPY PUSH1 0x0 RETURN INVALID PUSH1 0x80 PUSH1 0x40 MSTORE PUSH1 0x4 CALLDATASIZE LT PUSH3 0x86 JUMPI PUSH1 0x0 CALLDATALOAD PUSH1 0xE0 SHR DUP1 PUSH4 0x715018A6 GT PUSH3 0x55 JUMPI DUP1 PUSH4 0x715018A6 EQ PUSH3 0x151 JUMPI DUP1 PUSH4 0x8DA5CB5B EQ PUSH3 0x16B JUMPI DUP1 PUSH4 0xCB309094 EQ PUSH3 0x19B JUMPI DUP1 PUSH4 0xF2FDE38B EQ PUSH3 0x1C9 JUMPI PUSH3 0x86 JUMP JUMPDEST DUP1 PUSH4 0x3B86B5A EQ PUSH3 0x8B JUMPI DUP1 PUSH4 0x9BE7707 EQ PUSH3 0xB9 JUMPI DUP1 PUSH4 0x1FA5846F EQ PUSH3 0xD9 JUMPI DUP1 PUSH4 0x5E753545 EQ PUSH3 0x107 JUMPI JUMPDEST PUSH1 0x0 DUP1 REVERT JUMPDEST CALLVALUE DUP1 ISZERO PUSH3 0x98 JUMPI PUSH1 0x0 DUP1 REVERT JUMPDEST POP PUSH3 0xB7 PUSH1 0x4 DUP1 CALLDATASIZE SUB DUP2 ADD SWAP1 PUSH3 0xB1 SWAP2 SWAP1 PUSH3 0x10D8 JUMP JUMPDEST PUSH3 0x1F7 JUMP JUMPDEST STOP JUMPDEST PUSH3 0xD7 PUSH1 0x4 DUP1 CALLDATASIZE SUB DUP2 ADD SWAP1 PUSH3 0xD1 SWAP2 SWAP1 PUSH3 0x1164 JUMP JUMPDEST PUSH3 0x580 JUMP JUMPDEST STOP JUMPDEST CALLVALUE DUP1 ISZERO PUSH3 0xE6 JUMPI PUSH1 0x0 DUP1 REVERT JUMPDEST POP PUSH3 0x105 PUSH1 0x4 DUP1 CALLDATASIZE SUB DUP2 ADD SWAP1 PUSH3 0xFF SWAP2 SWAP1 PUSH3 0x11CA JUMP JUMPDEST PUSH3 0x751 JUMP JUMPDEST STOP JUMPDEST CALLVALUE DUP1 ISZERO PUSH3 0x114 JUMPI PUSH1 0x0 DUP1 REVERT JUMPDEST POP PUSH3 0x133 PUSH1 0x4 DUP1 CALLDATASIZE SUB DUP2 ADD SWAP1 PUSH3 0x12D SWAP2 SWAP1 PUSH3 0x10D8 JUMP JUMPDEST PUSH3 0x9F5 JUMP JUMPDEST PUSH1 0x40 MLOAD PUSH3 0x148 SWAP8 SWAP7 SWAP6 SWAP5 SWAP4 SWAP3 SWAP2 SWAP1 PUSH3 0x12E6 JUMP JUMPDEST PUSH1 0x40 MLOAD DUP1 SWAP2 SUB SWAP1 RETURN JUMPDEST CALLVALUE DUP1 ISZERO PUSH3 0x15E JUMPI PUSH1 0x0 DUP1 REVERT JUMPDEST POP PUSH3 0x169 PUSH3 0xA8D JUMP JUMPDEST STOP JUMPDEST CALLVALUE DUP1 ISZERO PUSH3 0x178 JUMPI PUSH1 0x0 DUP1 REVERT JUMPDEST POP PUSH3 0x183 PUSH3 0xAA5 JUMP JUMPDEST PUSH1 0x40 MLOAD PUSH3 0x192 SWAP2 SWAP1 PUSH3 0x1363 JUMP JUMPDEST PUSH1 0x40 MLOAD DUP1 SWAP2 SUB SWAP1 RETURN JUMPDEST CALLVALUE DUP1 ISZERO PUSH3 0x1A8 JUMPI PUSH1 0x0 DUP1 REVERT JUMPDEST POP PUSH3 0x1C7 PUSH1 0x4 DUP1 CALLDATASIZE SUB DUP2 ADD SWAP1 PUSH3 0x1C1 SWAP2 SWAP1 PUSH3 0x10D8 JUMP JUMPDEST PUSH3 0xACE JUMP JUMPDEST STOP JUMPDEST CALLVALUE DUP1 ISZERO PUSH3 0x1D6 JUMPI PUSH1 0x0 DUP1 REVERT JUMPDEST POP PUSH3 0x1F5 PUSH1 0x4 DUP1 CALLDATASIZE SUB DUP2 ADD SWAP1 PUSH3 0x1EF SWAP2 SWAP1 PUSH3 0x13B1 JUMP JUMPDEST PUSH3 0xD1E JUMP JUMPDEST STOP JUMPDEST PUSH3 0x201 PUSH3 0xDA8 JUMP JUMPDEST PUSH1 0x2 DUP2 PUSH1 0x40 MLOAD PUSH3 0x213 SWAP2 SWAP1 PUSH3 0x145C JUMP JUMPDEST SWAP1 DUP2 MSTORE PUSH1 0x20 ADD PUSH1 0x40 MLOAD DUP1 SWAP2 SUB SWAP1 KECCAK256 PUSH1 0x5 ADD SLOAD TIMESTAMP GT PUSH3 0x269 JUMPI PUSH1 0x40 MLOAD PUSH32 0x8C379A000000000000000000000000000000000000000000000000000000000 DUP2 MSTORE PUSH1 0x4 ADD PUSH3 0x260 SWAP1 PUSH3 0x14D6 JUMP JUMPDEST PUSH1 0x40 MLOAD DUP1 SWAP2 SUB SWAP1 REVERT JUMPDEST PUSH1 0x2 DUP2 PUSH1 0x40 MLOAD PUSH3 0x27B SWAP2 SWAP1 PUSH3 0x145C JUMP JUMPDEST SWAP1 DUP2 MSTORE PUSH1 0x20 ADD PUSH1 0x40 MLOAD DUP1 SWAP2 SUB SWAP1 KECCAK256 PUSH1 0x3 ADD SLOAD PUSH1 0x2 DUP3 PUSH1 0x40 MLOAD PUSH3 0x29F SWAP2 SWAP1 PUSH3 0x145C JUMP JUMPDEST SWAP1 DUP2 MSTORE PUSH1 0x20 ADD PUSH1 0x40 MLOAD DUP1 SWAP2 SUB SWAP1 KECCAK256 PUSH1 0x6 ADD SLOAD LT PUSH3 0x2F4 JUMPI PUSH1 0x40 MLOAD PUSH32 0x8C379A000000000000000000000000000000000000000000000000000000000 DUP2 MSTORE PUSH1 0x4 ADD PUSH3 0x2EB SWAP1 PUSH3 0x1548 JUMP JUMPDEST PUSH1 0x40 MLOAD DUP1 SWAP2 SUB SWAP1 REVERT JUMPDEST PUSH1 0x0 PUSH1 0x2 DUP3 PUSH1 0x40 MLOAD PUSH3 0x308 SWAP2 SWAP1 PUSH3 0x145C JUMP JUMPDEST SWAP1 DUP2 MSTORE PUSH1 0x20 ADD PUSH1 0x40 MLOAD DUP1 SWAP2 SUB SWAP1 KECCAK256 PUSH1 0x0 ADD PUSH1 0x0 SWAP1 SLOAD SWAP1 PUSH2 0x100 EXP SWAP1 DIV PUSH20 0xFFFFFFFFFFFFFFFFFFFFFFFFFFFFFFFFFFFFFFFF AND PUSH20 0xFFFFFFFFFFFFFFFFFFFFFFFFFFFFFFFFFFFFFFFF AND PUSH4 0x70A08231 CALLER PUSH1 0x40 MLOAD DUP3 PUSH4 0xFFFFFFFF AND PUSH1 0xE0 SHL DUP2 MSTORE PUSH1 0x4 ADD PUSH3 0x374 SWAP2 SWAP1 PUSH3 0x1363 JUMP JUMPDEST PUSH1 0x20 PUSH1 0x40 MLOAD DUP1 DUP4 SUB DUP2 DUP7 GAS STATICCALL ISZERO DUP1 ISZERO PUSH3 0x392 JUMPI RETURNDATASIZE PUSH1 0x0 DUP1 RETURNDATACOPY RETURNDATASIZE PUSH1 0x0 REVERT JUMPDEST POP POP POP POP PUSH1 0x40 MLOAD RETURNDATASIZE PUSH1 0x1F NOT PUSH1 0x1F DUP3 ADD AND DUP3 ADD DUP1 PUSH1 0x40 MSTORE POP DUP2 ADD SWAP1 PUSH3 0x3B8 SWAP2 SWAP1 PUSH3 0x1581 JUMP JUMPDEST SWAP1 POP PUSH1 0x2 DUP3 PUSH1 0x40 MLOAD PUSH3 0x3CC SWAP2 SWAP1 PUSH3 0x145C JUMP JUMPDEST SWAP1 DUP2 MSTORE PUSH1 0x20 ADD PUSH1 0x40 MLOAD DUP1 SWAP2 SUB SWAP1 KECCAK256 PUSH1 0x0 ADD PUSH1 0x0 SWAP1 SLOAD SWAP1 PUSH2 0x100 EXP SWAP1 DIV PUSH20 0xFFFFFFFFFFFFFFFFFFFFFFFFFFFFFFFFFFFFFFFF AND PUSH20 0xFFFFFFFFFFFFFFFFFFFFFFFFFFFFFFFFFFFFFFFF AND PUSH4 0x23B872DD CALLER ADDRESS DUP5 PUSH1 0x40 MLOAD DUP5 PUSH4 0xFFFFFFFF AND PUSH1 0xE0 SHL DUP2 MSTORE PUSH1 0x4 ADD PUSH3 0x43C SWAP4 SWAP3 SWAP2 SWAP1 PUSH3 0x15B3 JUMP JUMPDEST PUSH1 0x20 PUSH1 0x40 MLOAD DUP1 DUP4 SUB DUP2 PUSH1 0x0 DUP8 GAS CALL ISZERO DUP1 ISZERO PUSH3 0x45C JUMPI RETURNDATASIZE PUSH1 0x0 DUP1 RETURNDATACOPY RETURNDATASIZE PUSH1 0x0 REVERT JUMPDEST POP POP POP POP PUSH1 0x40 MLOAD RETURNDATASIZE PUSH1 0x1F NOT PUSH1 0x1F DUP3 ADD AND DUP3 ADD DUP1 PUSH1 0x40 MSTORE POP DUP2 ADD SWAP1 PUSH3 0x482 SWAP2 SWAP1 PUSH3 0x162D JUMP JUMPDEST POP PUSH1 0x0 DUP2 PUSH1 0x2 DUP5 PUSH1 0x40 MLOAD PUSH3 0x498 SWAP2 SWAP1 PUSH3 0x145C JUMP JUMPDEST SWAP1 DUP2 MSTORE PUSH1 0x20 ADD PUSH1 0x40 MLOAD DUP1 SWAP2 SUB SWAP1 KECCAK256 PUSH1 0x2 ADD SLOAD PUSH3 0x4B6 SWAP2 SWAP1 PUSH3 0x168E JUMP JUMPDEST SWAP1 POP PUSH1 0x0 CALLER PUSH20 0xFFFFFFFFFFFFFFFFFFFFFFFFFFFFFFFFFFFFFFFF AND PUSH2 0x8FC DUP4 SWAP1 DUP2 ISZERO MUL SWAP1 PUSH1 0x40 MLOAD PUSH1 0x0 PUSH1 0x40 MLOAD DUP1 DUP4 SUB DUP2 DUP6 DUP9 DUP9 CALL SWAP4 POP POP POP POP SWAP1 POP DUP1 PUSH3 0x534 JUMPI PUSH1 0x40 MLOAD PUSH32 0x8C379A000000000000000000000000000000000000000000000000000000000 DUP2 MSTORE PUSH1 0x4 ADD PUSH3 0x52B SWAP1 PUSH3 0x1729 JUMP JUMPDEST PUSH1 0x40 MLOAD DUP1 SWAP2 SUB SWAP1 REVERT JUMPDEST DUP2 PUSH1 0x2 DUP6 PUSH1 0x40 MLOAD PUSH3 0x547 SWAP2 SWAP1 PUSH3 0x145C JUMP JUMPDEST SWAP1 DUP2 MSTORE PUSH1 0x20 ADD PUSH1 0x40 MLOAD DUP1 SWAP2 SUB SWAP1 KECCAK256 PUSH1 0x6 ADD PUSH1 0x0 DUP3 DUP3 SLOAD PUSH3 0x569 SWAP2 SWAP1 PUSH3 0x174B JUMP JUMPDEST SWAP3 POP POP DUP2 SWAP1 SSTORE POP POP POP POP PUSH3 0x57D PUSH3 0xDFA JUMP JUMPDEST POP JUMP JUMPDEST DUP1 PUSH1 0x2 DUP4 PUSH1 0x40 MLOAD PUSH3 0x593 SWAP2 SWAP1 PUSH3 0x145C JUMP JUMPDEST SWAP1 DUP2 MSTORE PUSH1 0x20 ADD PUSH1 0x40 MLOAD DUP1 SWAP2 SUB SWAP1 KECCAK256 PUSH1 0x2 ADD SLOAD PUSH3 0x5B1 SWAP2 SWAP1 PUSH3 0x168E JUMP JUMPDEST CALLVALUE EQ PUSH3 0x5F5 JUMPI PUSH1 0x40 MLOAD PUSH32 0x8C379A000000000000000000000000000000000000000000000000000000000 DUP2 MSTORE PUSH1 0x4 ADD PUSH3 0x5EC SWAP1 PUSH3 0x17D6 JUMP JUMPDEST PUSH1 0x40 MLOAD DUP1 SWAP2 SUB SWAP1 REVERT JUMPDEST TIMESTAMP PUSH1 0x2 DUP4 PUSH1 0x40 MLOAD PUSH3 0x608 SWAP2 SWAP1 PUSH3 0x145C JUMP JUMPDEST SWAP1 DUP2 MSTORE PUSH1 0x20 ADD PUSH1 0x40 MLOAD DUP1 SWAP2 SUB SWAP1 KECCAK256 PUSH1 0x5 ADD SLOAD GT PUSH3 0x65D JUMPI PUSH1 0x40 MLOAD PUSH32 0x8C379A000000000000000000000000000000000000000000000000000000000 DUP2 MSTORE PUSH1 0x4 ADD PUSH3 0x654 SWAP1 PUSH3 0x1848 JUMP JUMPDEST PUSH1 0x40 MLOAD DUP1 SWAP2 SUB SWAP1 REVERT JUMPDEST PUSH1 0x2 DUP3 PUSH1 0x40 MLOAD PUSH3 0x66F SWAP2 SWAP1 PUSH3 0x145C JUMP JUMPDEST SWAP1 DUP2 MSTORE PUSH1 0x20 ADD PUSH1 0x40 MLOAD DUP1 SWAP2 SUB SWAP1 KECCAK256 PUSH1 0x0 ADD PUSH1 0x0 SWAP1 SLOAD SWAP1 PUSH2 0x100 EXP SWAP1 DIV PUSH20 0xFFFFFFFFFFFFFFFFFFFFFFFFFFFFFFFFFFFFFFFF AND PUSH20 0xFFFFFFFFFFFFFFFFFFFFFFFFFFFFFFFFFFFFFFFF AND PUSH4 0x40C10F19 CALLER DUP4 PUSH1 0x40 MLOAD DUP4 PUSH4 0xFFFFFFFF AND PUSH1 0xE0 SHL DUP2 MSTORE PUSH1 0x4 ADD PUSH3 0x6DD SWAP3 SWAP2 SWAP1 PUSH3 0x186A JUMP JUMPDEST PUSH1 0x0 PUSH1 0x40 MLOAD DUP1 DUP4 SUB DUP2 PUSH1 0x0 DUP8 DUP1 EXTCODESIZE ISZERO DUP1 ISZERO PUSH3 0x6F8 JUMPI PUSH1 0x0 DUP1 REVERT JUMPDEST POP GAS CALL ISZERO DUP1 ISZERO PUSH3 0x70D JUMPI RETURNDATASIZE PUSH1 0x0 DUP1 RETURNDATACOPY RETURNDATASIZE PUSH1 0x0 REVERT JUMPDEST POP POP POP POP CALLVALUE PUSH1 0x2 DUP4 PUSH1 0x40 MLOAD PUSH3 0x724 SWAP2 SWAP1 PUSH3 0x145C JUMP JUMPDEST SWAP1 DUP2 MSTORE PUSH1 0x20 ADD PUSH1 0x40 MLOAD DUP1 SWAP2 SUB SWAP1 KECCAK256 PUSH1 0x6 ADD PUSH1 0x0 DUP3 DUP3 SLOAD PUSH3 0x746 SWAP2 SWAP1 PUSH3 0x1897 JUMP JUMPDEST SWAP3 POP POP DUP2 SWAP1 SSTORE POP POP POP JUMP JUMPDEST PUSH1 0x0 PUSH20 0xFFFFFFFFFFFFFFFFFFFFFFFFFFFFFFFFFFFFFFFF AND PUSH1 0x2 DUP7 PUSH1 0x40 MLOAD PUSH3 0x77B SWAP2 SWAP1 PUSH3 0x145C JUMP JUMPDEST SWAP1 DUP2 MSTORE PUSH1 0x20 ADD PUSH1 0x40 MLOAD DUP1 SWAP2 SUB SWAP1 KECCAK256 PUSH1 0x1 ADD PUSH1 0x0 SWAP1 SLOAD SWAP1 PUSH2 0x100 EXP SWAP1 DIV PUSH20 0xFFFFFFFFFFFFFFFFFFFFFFFFFFFFFFFFFFFFFFFF AND PUSH20 0xFFFFFFFFFFFFFFFFFFFFFFFFFFFFFFFFFFFFFFFF AND EQ PUSH3 0x806 JUMPI PUSH1 0x40 MLOAD PUSH32 0x8C379A000000000000000000000000000000000000000000000000000000000 DUP2 MSTORE PUSH1 0x4 ADD PUSH3 0x7FD SWAP1 PUSH3 0x1922 JUMP JUMPDEST PUSH1 0x40 MLOAD DUP1 SWAP2 SUB SWAP1 REVERT JUMPDEST TIMESTAMP DUP2 GT DUP1 ISZERO PUSH3 0x816 JUMPI POP PUSH1 0x0 DUP3 GT JUMPDEST DUP1 ISZERO PUSH3 0x823 JUMPI POP PUSH1 0x0 DUP4 GT JUMPDEST PUSH3 0x865 JUMPI PUSH1 0x40 MLOAD PUSH32 0x8C379A000000000000000000000000000000000000000000000000000000000 DUP2 MSTORE PUSH1 0x4 ADD PUSH3 0x85C SWAP1 PUSH3 0x1994 JUMP JUMPDEST PUSH1 0x40 MLOAD DUP1 SWAP2 SUB SWAP1 REVERT JUMPDEST PUSH1 0x0 DUP6 DUP6 PUSH1 0x40 MLOAD PUSH3 0x877 SWAP1 PUSH3 0xF54 JUMP JUMPDEST PUSH3 0x884 SWAP3 SWAP2 SWAP1 PUSH3 0x19F7 JUMP JUMPDEST PUSH1 0x40 MLOAD DUP1 SWAP2 SUB SWAP1 PUSH1 0x0 CREATE DUP1 ISZERO DUP1 ISZERO PUSH3 0x8A1 JUMPI RETURNDATASIZE PUSH1 0x0 DUP1 RETURNDATACOPY RETURNDATASIZE PUSH1 0x0 REVERT JUMPDEST POP SWAP1 POP PUSH1 0x0 PUSH1 0x40 MLOAD DUP1 PUSH1 0xE0 ADD PUSH1 0x40 MSTORE DUP1 DUP4 PUSH20 0xFFFFFFFFFFFFFFFFFFFFFFFFFFFFFFFFFFFFFFFF AND DUP2 MSTORE PUSH1 0x20 ADD CALLER PUSH20 0xFFFFFFFFFFFFFFFFFFFFFFFFFFFFFFFFFFFFFFFF AND DUP2 MSTORE PUSH1 0x20 ADD DUP7 DUP2 MSTORE PUSH1 0x20 ADD DUP6 DUP2 MSTORE PUSH1 0x20 ADD TIMESTAMP DUP2 MSTORE PUSH1 0x20 ADD DUP5 DUP2 MSTORE PUSH1 0x20 ADD PUSH1 0x0 DUP2 MSTORE POP SWAP1 POP DUP1 PUSH1 0x2 DUP9 PUSH1 0x40 MLOAD PUSH3 0x91B SWAP2 SWAP1 PUSH3 0x145C JUMP JUMPDEST SWAP1 DUP2 MSTORE PUSH1 0x20 ADD PUSH1 0x40 MLOAD DUP1 SWAP2 SUB SWAP1 KECCAK256 PUSH1 0x0 DUP3 ADD MLOAD DUP2 PUSH1 0x0 ADD PUSH1 0x0 PUSH2 0x100 EXP DUP2 SLOAD DUP2 PUSH20 0xFFFFFFFFFFFFFFFFFFFFFFFFFFFFFFFFFFFFFFFF MUL NOT AND SWAP1 DUP4 PUSH20 0xFFFFFFFFFFFFFFFFFFFFFFFFFFFFFFFFFFFFFFFF AND MUL OR SWAP1 SSTORE POP PUSH1 0x20 DUP3 ADD MLOAD DUP2 PUSH1 0x1 ADD PUSH1 0x0 PUSH2 0x100 EXP DUP2 SLOAD DUP2 PUSH20 0xFFFFFFFFFFFFFFFFFFFFFFFFFFFFFFFFFFFFFFFF MUL NOT AND SWAP1 DUP4 PUSH20 0xFFFFFFFFFFFFFFFFFFFFFFFFFFFFFFFFFFFFFFFF AND MUL OR SWAP1 SSTORE POP PUSH1 0x40 DUP3 ADD MLOAD DUP2 PUSH1 0x2 ADD SSTORE PUSH1 0x60 DUP3 ADD MLOAD DUP2 PUSH1 0x3 ADD SSTORE PUSH1 0x80 DUP3 ADD MLOAD DUP2 PUSH1 0x4 ADD SSTORE PUSH1 0xA0 DUP3 ADD MLOAD DUP2 PUSH1 0x5 ADD SSTORE PUSH1 0xC0 DUP3 ADD MLOAD DUP2 PUSH1 0x6 ADD SSTORE SWAP1 POP POP POP POP POP POP POP POP POP JUMP JUMPDEST PUSH1 0x2 DUP2 DUP1 MLOAD PUSH1 0x20 DUP2 ADD DUP3 ADD DUP1 MLOAD DUP5 DUP3 MSTORE PUSH1 0x20 DUP4 ADD PUSH1 0x20 DUP6 ADD KECCAK256 DUP2 DUP4 MSTORE DUP1 SWAP6 POP POP POP POP POP POP PUSH1 0x0 SWAP2 POP SWAP1 POP DUP1 PUSH1 0x0 ADD PUSH1 0x0 SWAP1 SLOAD SWAP1 PUSH2 0x100 EXP SWAP1 DIV PUSH20 0xFFFFFFFFFFFFFFFFFFFFFFFFFFFFFFFFFFFFFFFF AND SWAP1 DUP1 PUSH1 0x1 ADD PUSH1 0x0 SWAP1 SLOAD SWAP1 PUSH2 0x100 EXP SWAP1 DIV PUSH20 0xFFFFFFFFFFFFFFFFFFFFFFFFFFFFFFFFFFFFFFFF AND SWAP1 DUP1 PUSH1 0x2 ADD SLOAD SWAP1 DUP1 PUSH1 0x3 ADD SLOAD SWAP1 DUP1 PUSH1 0x4 ADD SLOAD SWAP1 DUP1 PUSH1 0x5 ADD SLOAD SWAP1 DUP1 PUSH1 0x6 ADD SLOAD SWAP1 POP DUP8 JUMP JUMPDEST PUSH3 0xA97 PUSH3 0xE03 JUMP JUMPDEST PUSH3 0xAA3 PUSH1 0x0 PUSH3 0xE88 JUMP JUMPDEST JUMP JUMPDEST PUSH1 0x0 DUP1 PUSH1 0x0 SWAP1 SLOAD SWAP1 PUSH2 0x100 EXP SWAP1 DIV PUSH20 0xFFFFFFFFFFFFFFFFFFFFFFFFFFFFFFFFFFFFFFFF AND SWAP1 POP SWAP1 JUMP JUMPDEST PUSH3 0xAD8 PUSH3 0xDA8 JUMP JUMPDEST PUSH1 0x2 DUP2 PUSH1 0x40 MLOAD PUSH3 0xAEA SWAP2 SWAP1 PUSH3 0x145C JUMP JUMPDEST SWAP1 DUP2 MSTORE PUSH1 0x20 ADD PUSH1 0x40 MLOAD DUP1 SWAP2 SUB SWAP1 KECCAK256 PUSH1 0x1 ADD PUSH1 0x0 SWAP1 SLOAD SWAP1 PUSH2 0x100 EXP SWAP1 DIV PUSH20 0xFFFFFFFFFFFFFFFFFFFFFFFFFFFFFFFFFFFFFFFF AND PUSH20 0xFFFFFFFFFFFFFFFFFFFFFFFFFFFFFFFFFFFFFFFF AND CALLER PUSH20 0xFFFFFFFFFFFFFFFFFFFFFFFFFFFFFFFFFFFFFFFF AND EQ PUSH3 0xB8C JUMPI PUSH1 0x40 MLOAD PUSH32 0x8C379A000000000000000000000000000000000000000000000000000000000 DUP2 MSTORE PUSH1 0x4 ADD PUSH3 0xB83 SWAP1 PUSH3 0x1A82 JUMP JUMPDEST PUSH1 0x40 MLOAD DUP1 SWAP2 SUB SWAP1 REVERT JUMPDEST TIMESTAMP PUSH1 0x2 DUP3 PUSH1 0x40 MLOAD PUSH3 0xB9F SWAP2 SWAP1 PUSH3 0x145C JUMP JUMPDEST SWAP1 DUP2 MSTORE PUSH1 0x20 ADD PUSH1 0x40 MLOAD DUP1 SWAP2 SUB SWAP1 KECCAK256 PUSH1 0x5 ADD SLOAD LT PUSH3 0xBF4 JUMPI PUSH1 0x40 MLOAD PUSH32 0x8C379A000000000000000000000000000000000000000000000000000000000 DUP2 MSTORE PUSH1 0x4 ADD PUSH3 0xBEB SWAP1 PUSH3 0x1AF4 JUMP JUMPDEST PUSH1 0x40 MLOAD DUP1 SWAP2 SUB SWAP1 REVERT JUMPDEST PUSH1 0x2 DUP2 PUSH1 0x40 MLOAD PUSH3 0xC06 SWAP2 SWAP1 PUSH3 0x145C JUMP JUMPDEST SWAP1 DUP2 MSTORE PUSH1 0x20 ADD PUSH1 0x40 MLOAD DUP1 SWAP2 SUB SWAP1 KECCAK256 PUSH1 0x3 ADD SLOAD PUSH1 0x2 DUP3 PUSH1 0x40 MLOAD PUSH3 0xC2A SWAP2 SWAP1 PUSH3 0x145C JUMP JUMPDEST SWAP1 DUP2 MSTORE PUSH1 0x20 ADD PUSH1 0x40 MLOAD DUP1 SWAP2 SUB SWAP1 KECCAK256 PUSH1 0x6 ADD SLOAD LT ISZERO PUSH3 0xC80 JUMPI PUSH1 0x40 MLOAD PUSH32 0x8C379A000000000000000000000000000000000000000000000000000000000 DUP2 MSTORE PUSH1 0x4 ADD PUSH3 0xC77 SWAP1 PUSH3 0x1B66 JUMP JUMPDEST PUSH1 0x40 MLOAD DUP1 SWAP2 SUB SWAP1 REVERT JUMPDEST PUSH1 0x0 CALLER PUSH20 0xFFFFFFFFFFFFFFFFFFFFFFFFFFFFFFFFFFFFFFFF AND PUSH2 0x8FC PUSH1 0x2 DUP5 PUSH1 0x40 MLOAD PUSH3 0xCAE SWAP2 SWAP1 PUSH3 0x145C JUMP JUMPDEST SWAP1 DUP2 MSTORE PUSH1 0x20 ADD PUSH1 0x40 MLOAD DUP1 SWAP2 SUB SWAP1 KECCAK256 PUSH1 0x6 ADD SLOAD SWAP1 DUP2 ISZERO MUL SWAP1 PUSH1 0x40 MLOAD PUSH1 0x0 PUSH1 0x40 MLOAD DUP1 DUP4 SUB DUP2 DUP6 DUP9 DUP9 CALL SWAP4 POP POP POP POP SWAP1 POP DUP1 PUSH3 0xCE7 JUMPI PUSH1 0x0 DUP1 REVERT JUMPDEST PUSH1 0x0 PUSH1 0x2 DUP4 PUSH1 0x40 MLOAD PUSH3 0xCFB SWAP2 SWAP1 PUSH3 0x145C JUMP JUMPDEST SWAP1 DUP2 MSTORE PUSH1 0x20 ADD PUSH1 0x40 MLOAD DUP1 SWAP2 SUB SWAP1 KECCAK256 PUSH1 0x6 ADD DUP2 SWAP1 SSTORE POP POP PUSH3 0xD1B PUSH3 0xDFA JUMP JUMPDEST POP JUMP JUMPDEST PUSH3 0xD28 PUSH3 0xE03 JUMP JUMPDEST PUSH1 0x0 PUSH20 0xFFFFFFFFFFFFFFFFFFFFFFFFFFFFFFFFFFFFFFFF AND DUP2 PUSH20 0xFFFFFFFFFFFFFFFFFFFFFFFFFFFFFFFFFFFFFFFF AND SUB PUSH3 0xD9A JUMPI PUSH1 0x40 MLOAD PUSH32 0x8C379A000000000000000000000000000000000000000000000000000000000 DUP2 MSTORE PUSH1 0x4 ADD PUSH3 0xD91 SWAP1 PUSH3 0x1BFE JUMP JUMPDEST PUSH1 0x40 MLOAD DUP1 SWAP2 SUB SWAP1 REVERT JUMPDEST PUSH3 0xDA5 DUP2 PUSH3 0xE88 JUMP JUMPDEST POP JUMP JUMPDEST PUSH1 0x2 PUSH1 0x1 SLOAD SUB PUSH3 0xDF0 JUMPI PUSH1 0x40 MLOAD PUSH32 0x8C379A000000000000000000000000000000000000000000000000000000000 DUP2 MSTORE PUSH1 0x4 ADD PUSH3 0xDE7 SWAP1 PUSH3 0x1C70 JUMP JUMPDEST PUSH1 0x40 MLOAD DUP1 SWAP2 SUB SWAP1 REVERT JUMPDEST PUSH1 0x2 PUSH1 0x1 DUP2 SWAP1 SSTORE POP JUMP JUMPDEST PUSH1 0x1 DUP1 DUP2 SWAP1 SSTORE POP JUMP JUMPDEST PUSH3 0xE0D PUSH3 0xF4C JUMP JUMPDEST PUSH20 0xFFFFFFFFFFFFFFFFFFFFFFFFFFFFFFFFFFFFFFFF AND PUSH3 0xE2D PUSH3 0xAA5 JUMP JUMPDEST PUSH20 0xFFFFFFFFFFFFFFFFFFFFFFFFFFFFFFFFFFFFFFFF AND EQ PUSH3 0xE86 JUMPI PUSH1 0x40 MLOAD PUSH32 0x8C379A000000000000000000000000000000000000000000000000000000000 DUP2 MSTORE PUSH1 0x4 ADD PUSH3 0xE7D SWAP1 PUSH3 0x1CE2 JUMP JUMPDEST PUSH1 0x40 MLOAD DUP1 SWAP2 SUB SWAP1 REVERT JUMPDEST JUMP JUMPDEST PUSH1 0x0 DUP1 PUSH1 0x0 SWAP1 SLOAD SWAP1 PUSH2 0x100 EXP SWAP1 DIV PUSH20 0xFFFFFFFFFFFFFFFFFFFFFFFFFFFFFFFFFFFFFFFF AND SWAP1 POP DUP2 PUSH1 0x0 DUP1 PUSH2 0x100 EXP DUP2 SLOAD DUP2 PUSH20 0xFFFFFFFFFFFFFFFFFFFFFFFFFFFFFFFFFFFFFFFF MUL NOT AND SWAP1 DUP4 PUSH20 0xFFFFFFFFFFFFFFFFFFFFFFFFFFFFFFFFFFFFFFFF AND MUL OR SWAP1 SSTORE POP DUP2 PUSH20 0xFFFFFFFFFFFFFFFFFFFFFFFFFFFFFFFFFFFFFFFF AND DUP2 PUSH20 0xFFFFFFFFFFFFFFFFFFFFFFFFFFFFFFFFFFFFFFFF AND PUSH32 0x8BE0079C531659141344CD1FD0A4F28419497F9722A3DAAFE3B4186F6B6457E0 PUSH1 0x40 MLOAD PUSH1 0x40 MLOAD DUP1 SWAP2 SUB SWAP1 LOG3 POP POP JUMP JUMPDEST PUSH1 0x0 CALLER SWAP1 POP SWAP1 JUMP JUMPDEST PUSH2 0x1A13 DUP1 PUSH3 0x1D05 DUP4 CODECOPY ADD SWAP1 JUMP JUMPDEST PUSH1 0x0 PUSH1 0x40 MLOAD SWAP1 POP SWAP1 JUMP JUMPDEST PUSH1 0x0 DUP1 REVERT JUMPDEST PUSH1 0x0 DUP1 REVERT JUMPDEST PUSH1 0x0 DUP1 REVERT JUMPDEST PUSH1 0x0 DUP1 REVERT JUMPDEST PUSH1 0x0 PUSH1 0x1F NOT PUSH1 0x1F DUP4 ADD AND SWAP1 POP SWAP2 SWAP1 POP JUMP JUMPDEST PUSH32 0x4E487B7100000000000000000000000000000000000000000000000000000000 PUSH1 0x0 MSTORE PUSH1 0x41 PUSH1 0x4 MSTORE PUSH1 0x24 PUSH1 0x0 REVERT JUMPDEST PUSH3 0xFCB DUP3 PUSH3 0xF80 JUMP JUMPDEST DUP2 ADD DUP2 DUP2 LT PUSH8 0xFFFFFFFFFFFFFFFF DUP3 GT OR ISZERO PUSH3 0xFED JUMPI PUSH3 0xFEC PUSH3 0xF91 JUMP JUMPDEST JUMPDEST DUP1 PUSH1 0x40 MSTORE POP POP POP JUMP JUMPDEST PUSH1 0x0 PUSH3 0x1002 PUSH3 0xF62 JUMP JUMPDEST SWAP1 POP PUSH3 0x1010 DUP3 DUP3 PUSH3 0xFC0 JUMP JUMPDEST SWAP2 SWAP1 POP JUMP JUMPDEST PUSH1 0x0 PUSH8 0xFFFFFFFFFFFFFFFF DUP3 GT ISZERO PUSH3 0x1033 JUMPI PUSH3 0x1032 PUSH3 0xF91 JUMP JUMPDEST JUMPDEST PUSH3 0x103E DUP3 PUSH3 0xF80 JUMP JUMPDEST SWAP1 POP PUSH1 0x20 DUP2 ADD SWAP1 POP SWAP2 SWAP1 POP JUMP JUMPDEST DUP3 DUP2 DUP4 CALLDATACOPY PUSH1 0x0 DUP4 DUP4 ADD MSTORE POP POP POP JUMP JUMPDEST PUSH1 0x0 PUSH3 0x1071 PUSH3 0x106B DUP5 PUSH3 0x1015 JUMP JUMPDEST PUSH3 0xFF6 JUMP JUMPDEST SWAP1 POP DUP3 DUP2 MSTORE PUSH1 0x20 DUP2 ADD DUP5 DUP5 DUP5 ADD GT ISZERO PUSH3 0x1090 JUMPI PUSH3 0x108F PUSH3 0xF7B JUMP JUMPDEST JUMPDEST PUSH3 0x109D DUP5 DUP3 DUP6 PUSH3 0x104B JUMP JUMPDEST POP SWAP4 SWAP3 POP POP POP JUMP JUMPDEST PUSH1 0x0 DUP3 PUSH1 0x1F DUP4 ADD SLT PUSH3 0x10BD JUMPI PUSH3 0x10BC PUSH3 0xF76 JUMP JUMPDEST JUMPDEST DUP2 CALLDATALOAD PUSH3 0x10CF DUP5 DUP3 PUSH1 0x20 DUP7 ADD PUSH3 0x105A JUMP JUMPDEST SWAP2 POP POP SWAP3 SWAP2 POP POP JUMP JUMPDEST PUSH1 0x0 PUSH1 0x20 DUP3 DUP5 SUB SLT ISZERO PUSH3 0x10F1 JUMPI PUSH3 0x10F0 PUSH3 0xF6C JUMP JUMPDEST JUMPDEST PUSH1 0x0 DUP3 ADD CALLDATALOAD PUSH8 0xFFFFFFFFFFFFFFFF DUP2 GT ISZERO PUSH3 0x1112 JUMPI PUSH3 0x1111 PUSH3 0xF71 JUMP JUMPDEST JUMPDEST PUSH3 0x1120 DUP5 DUP3 DUP6 ADD PUSH3 0x10A5 JUMP JUMPDEST SWAP2 POP POP SWAP3 SWAP2 POP POP JUMP JUMPDEST PUSH1 0x0 DUP2 SWAP1 POP SWAP2 SWAP1 POP JUMP JUMPDEST PUSH3 0x113E DUP2 PUSH3 0x1129 JUMP JUMPDEST DUP2 EQ PUSH3 0x114A JUMPI PUSH1 0x0 DUP1 REVERT JUMPDEST POP JUMP JUMPDEST PUSH1 0x0 DUP2 CALLDATALOAD SWAP1 POP PUSH3 0x115E DUP2 PUSH3 0x1133 JUMP JUMPDEST SWAP3 SWAP2 POP POP JUMP JUMPDEST PUSH1 0x0 DUP1 PUSH1 0x40 DUP4 DUP6 SUB SLT ISZERO PUSH3 0x117E JUMPI PUSH3 0x117D PUSH3 0xF6C JUMP JUMPDEST JUMPDEST PUSH1 0x0 DUP4 ADD CALLDATALOAD PUSH8 0xFFFFFFFFFFFFFFFF DUP2 GT ISZERO PUSH3 0x119F JUMPI PUSH3 0x119E PUSH3 0xF71 JUMP JUMPDEST JUMPDEST PUSH3 0x11AD DUP6 DUP3 DUP7 ADD PUSH3 0x10A5 JUMP JUMPDEST SWAP3 POP POP PUSH1 0x20 PUSH3 0x11C0 DUP6 DUP3 DUP7 ADD PUSH3 0x114D JUMP JUMPDEST SWAP2 POP POP SWAP3 POP SWAP3 SWAP1 POP JUMP JUMPDEST PUSH1 0x0 DUP1 PUSH1 0x0 DUP1 PUSH1 0x0 PUSH1 0xA0 DUP7 DUP9 SUB SLT ISZERO PUSH3 0x11E9 JUMPI PUSH3 0x11E8 PUSH3 0xF6C JUMP JUMPDEST JUMPDEST PUSH1 0x0 DUP7 ADD CALLDATALOAD PUSH8 0xFFFFFFFFFFFFFFFF DUP2 GT ISZERO PUSH3 0x120A JUMPI PUSH3 0x1209 PUSH3 0xF71 JUMP JUMPDEST JUMPDEST PUSH3 0x1218 DUP9 DUP3 DUP10 ADD PUSH3 0x10A5 JUMP JUMPDEST SWAP6 POP POP PUSH1 0x20 DUP7 ADD CALLDATALOAD PUSH8 0xFFFFFFFFFFFFFFFF DUP2 GT ISZERO PUSH3 0x123C JUMPI PUSH3 0x123B PUSH3 0xF71 JUMP JUMPDEST JUMPDEST PUSH3 0x124A DUP9 DUP3 DUP10 ADD PUSH3 0x10A5 JUMP JUMPDEST SWAP5 POP POP PUSH1 0x40 PUSH3 0x125D DUP9 DUP3 DUP10 ADD PUSH3 0x114D JUMP JUMPDEST SWAP4 POP POP PUSH1 0x60 PUSH3 0x1270 DUP9 DUP3 DUP10 ADD PUSH3 0x114D JUMP JUMPDEST SWAP3 POP POP PUSH1 0x80 PUSH3 0x1283 DUP9 DUP3 DUP10 ADD PUSH3 0x114D JUMP JUMPDEST SWAP2 POP POP SWAP3 SWAP6 POP SWAP3 SWAP6 SWAP1 SWAP4 POP JUMP JUMPDEST PUSH1 0x0 PUSH20 0xFFFFFFFFFFFFFFFFFFFFFFFFFFFFFFFFFFFFFFFF DUP3 AND SWAP1 POP SWAP2 SWAP1 POP JUMP JUMPDEST PUSH1 0x0 PUSH3 0x12BD DUP3 PUSH3 0x1290 JUMP JUMPDEST SWAP1 POP SWAP2 SWAP1 POP JUMP JUMPDEST PUSH3 0x12CF DUP2 PUSH3 0x12B0 JUMP JUMPDEST DUP3 MSTORE POP POP JUMP JUMPDEST PUSH3 0x12E0 DUP2 PUSH3 0x1129 JUMP JUMPDEST DUP3 MSTORE POP POP JUMP JUMPDEST PUSH1 0x0 PUSH1 0xE0 DUP3 ADD SWAP1 POP PUSH3 0x12FD PUSH1 0x0 DUP4 ADD DUP11 PUSH3 0x12C4 JUMP JUMPDEST PUSH3 0x130C PUSH1 0x20 DUP4 ADD DUP10 PUSH3 0x12C4 JUMP JUMPDEST PUSH3 0x131B PUSH1 0x40 DUP4 ADD DUP9 PUSH3 0x12D5 JUMP JUMPDEST PUSH3 0x132A PUSH1 0x60 DUP4 ADD DUP8 PUSH3 0x12D5 JUMP JUMPDEST PUSH3 0x1339 PUSH1 0x80 DUP4 ADD DUP7 PUSH3 0x12D5 JUMP JUMPDEST PUSH3 0x1348 PUSH1 0xA0 DUP4 ADD DUP6 PUSH3 0x12D5 JUMP JUMPDEST PUSH3 0x1357 PUSH1 0xC0 DUP4 ADD DUP5 PUSH3 0x12D5 JUMP JUMPDEST SWAP9 SWAP8 POP POP POP POP POP POP POP POP JUMP JUMPDEST PUSH1 0x0 PUSH1 0x20 DUP3 ADD SWAP1 POP PUSH3 0x137A PUSH1 0x0 DUP4 ADD DUP5 PUSH3 0x12C4 JUMP JUMPDEST SWAP3 SWAP2 POP POP JUMP JUMPDEST PUSH3 0x138B DUP2 PUSH3 0x12B0 JUMP JUMPDEST DUP2 EQ PUSH3 0x1397 JUMPI PUSH1 0x0 DUP1 REVERT JUMPDEST POP JUMP JUMPDEST PUSH1 0x0 DUP2 CALLDATALOAD SWAP1 POP PUSH3 0x13AB DUP2 PUSH3 0x1380 JUMP JUMPDEST SWAP3 SWAP2 POP POP JUMP JUMPDEST PUSH1 0x0 PUSH1 0x20 DUP3 DUP5 SUB SLT ISZERO PUSH3 0x13CA JUMPI PUSH3 0x13C9 PUSH3 0xF6C JUMP JUMPDEST JUMPDEST PUSH1 0x0 PUSH3 0x13DA DUP5 DUP3 DUP6 ADD PUSH3 0x139A JUMP JUMPDEST SWAP2 POP POP SWAP3 SWAP2 POP POP JUMP JUMPDEST PUSH1 0x0 DUP2 MLOAD SWAP1 POP SWAP2 SWAP1 POP JUMP JUMPDEST PUSH1 0x0 DUP2 SWAP1 POP SWAP3 SWAP2 POP POP JUMP JUMPDEST PUSH1 0x0 JUMPDEST DUP4 DUP2 LT ISZERO PUSH3 0x1419 JUMPI DUP1 DUP3 ADD MLOAD DUP2 DUP5 ADD MSTORE PUSH1 0x20 DUP2 ADD SWAP1 POP PUSH3 0x13FC JUMP JUMPDEST PUSH1 0x0 DUP5 DUP5 ADD MSTORE POP POP POP POP JUMP JUMPDEST PUSH1 0x0 PUSH3 0x1432 DUP3 PUSH3 0x13E3 JUMP JUMPDEST PUSH3 0x143E DUP2 DUP6 PUSH3 0x13EE JUMP JUMPDEST SWAP4 POP PUSH3 0x1450 DUP2 DUP6 PUSH1 0x20 DUP7 ADD PUSH3 0x13F9 JUMP JUMPDEST DUP1 DUP5 ADD SWAP2 POP POP SWAP3 SWAP2 POP POP JUMP JUMPDEST PUSH1 0x0 PUSH3 0x146A DUP3 DUP5 PUSH3 0x1425 JUMP JUMPDEST SWAP2 POP DUP2 SWAP1 POP SWAP3 SWAP2 POP POP JUMP JUMPDEST PUSH1 0x0 DUP3 DUP3 MSTORE PUSH1 0x20 DUP3 ADD SWAP1 POP SWAP3 SWAP2 POP POP JUMP JUMPDEST PUSH32 0x73616C6520686173206E6F7420656E6465640000000000000000000000000000 PUSH1 0x0 DUP3 ADD MSTORE POP JUMP JUMPDEST PUSH1 0x0 PUSH3 0x14BE PUSH1 0x12 DUP4 PUSH3 0x1475 JUMP JUMPDEST SWAP2 POP PUSH3 0x14CB DUP3 PUSH3 0x1486 JUMP JUMPDEST PUSH1 0x20 DUP3 ADD SWAP1 POP SWAP2 SWAP1 POP JUMP JUMPDEST PUSH1 0x0 PUSH1 0x20 DUP3 ADD SWAP1 POP DUP2 DUP2 SUB PUSH1 0x0 DUP4 ADD MSTORE PUSH3 0x14F1 DUP2 PUSH3 0x14AF JUMP JUMPDEST SWAP1 POP SWAP2 SWAP1 POP JUMP JUMPDEST PUSH32 0x53616C65205375636365737366756C6C7920636F6D706C657465640000000000 PUSH1 0x0 DUP3 ADD MSTORE POP JUMP JUMPDEST PUSH1 0x0 PUSH3 0x1530 PUSH1 0x1B DUP4 PUSH3 0x1475 JUMP JUMPDEST SWAP2 POP PUSH3 0x153D DUP3 PUSH3 0x14F8 JUMP JUMPDEST PUSH1 0x20 DUP3 ADD SWAP1 POP SWAP2 SWAP1 POP JUMP JUMPDEST PUSH1 0x0 PUSH1 0x20 DUP3 ADD SWAP1 POP DUP2 DUP2 SUB PUSH1 0x0 DUP4 ADD MSTORE PUSH3 0x1563 DUP2 PUSH3 0x1521 JUMP JUMPDEST SWAP1 POP SWAP2 SWAP1 POP JUMP JUMPDEST PUSH1 0x0 DUP2 MLOAD SWAP1 POP PUSH3 0x157B DUP2 PUSH3 0x1133 JUMP JUMPDEST SWAP3 SWAP2 POP POP JUMP JUMPDEST PUSH1 0x0 PUSH1 0x20 DUP3 DUP5 SUB SLT ISZERO PUSH3 0x159A JUMPI PUSH3 0x1599 PUSH3 0xF6C JUMP JUMPDEST JUMPDEST PUSH1 0x0 PUSH3 0x15AA DUP5 DUP3 DUP6 ADD PUSH3 0x156A JUMP JUMPDEST SWAP2 POP POP SWAP3 SWAP2 POP POP JUMP JUMPDEST PUSH1 0x0 PUSH1 0x60 DUP3 ADD SWAP1 POP PUSH3 0x15CA PUSH1 0x0 DUP4 ADD DUP7 PUSH3 0x12C4 JUMP JUMPDEST PUSH3 0x15D9 PUSH1 0x20 DUP4 ADD DUP6 PUSH3 0x12C4 JUMP JUMPDEST PUSH3 0x15E8 PUSH1 0x40 DUP4 ADD DUP5 PUSH3 0x12D5 JUMP JUMPDEST SWAP5 SWAP4 POP POP POP POP JUMP JUMPDEST PUSH1 0x0 DUP2 ISZERO ISZERO SWAP1 POP SWAP2 SWAP1 POP JUMP JUMPDEST PUSH3 0x1607 DUP2 PUSH3 0x15F0 JUMP JUMPDEST DUP2 EQ PUSH3 0x1613 JUMPI PUSH1 0x0 DUP1 REVERT JUMPDEST POP JUMP JUMPDEST PUSH1 0x0 DUP2 MLOAD SWAP1 POP PUSH3 0x1627 DUP2 PUSH3 0x15FC JUMP JUMPDEST SWAP3 SWAP2 POP POP JUMP JUMPDEST PUSH1 0x0 PUSH1 0x20 DUP3 DUP5 SUB SLT ISZERO PUSH3 0x1646 JUMPI PUSH3 0x1645 PUSH3 0xF6C JUMP JUMPDEST JUMPDEST PUSH1 0x0 PUSH3 0x1656 DUP5 DUP3 DUP6 ADD PUSH3 0x1616 JUMP JUMPDEST SWAP2 POP POP SWAP3 SWAP2 POP POP JUMP JUMPDEST PUSH32 0x4E487B7100000000000000000000000000000000000000000000000000000000 PUSH1 0x0 MSTORE PUSH1 0x11 PUSH1 0x4 MSTORE PUSH1 0x24 PUSH1 0x0 REVERT JUMPDEST PUSH1 0x0 PUSH3 0x169B DUP3 PUSH3 0x1129 JUMP JUMPDEST SWAP2 POP PUSH3 0x16A8 DUP4 PUSH3 0x1129 JUMP JUMPDEST SWAP3 POP DUP3 DUP3 MUL PUSH3 0x16B8 DUP2 PUSH3 0x1129 JUMP JUMPDEST SWAP2 POP DUP3 DUP3 DIV DUP5 EQ DUP4 ISZERO OR PUSH3 0x16D2 JUMPI PUSH3 0x16D1 PUSH3 0x165F JUMP JUMPDEST JUMPDEST POP SWAP3 SWAP2 POP POP JUMP JUMPDEST PUSH32 0x6661696C65640000000000000000000000000000000000000000000000000000 PUSH1 0x0 DUP3 ADD MSTORE POP JUMP JUMPDEST PUSH1 0x0 PUSH3 0x1711 PUSH1 0x6 DUP4 PUSH3 0x1475 JUMP JUMPDEST SWAP2 POP PUSH3 0x171E DUP3 PUSH3 0x16D9 JUMP JUMPDEST PUSH1 0x20 DUP3 ADD SWAP1 POP SWAP2 SWAP1 POP JUMP JUMPDEST PUSH1 0x0 PUSH1 0x20 DUP3 ADD SWAP1 POP DUP2 DUP2 SUB PUSH1 0x0 DUP4 ADD MSTORE PUSH3 0x1744 DUP2 PUSH3 0x1702 JUMP JUMPDEST SWAP1 POP SWAP2 SWAP1 POP JUMP JUMPDEST PUSH1 0x0 PUSH3 0x1758 DUP3 PUSH3 0x1129 JUMP JUMPDEST SWAP2 POP PUSH3 0x1765 DUP4 PUSH3 0x1129 JUMP JUMPDEST SWAP3 POP DUP3 DUP3 SUB SWAP1 POP DUP2 DUP2 GT ISZERO PUSH3 0x1780 JUMPI PUSH3 0x177F PUSH3 0x165F JUMP JUMPDEST JUMPDEST SWAP3 SWAP2 POP POP JUMP JUMPDEST PUSH32 0x696E73756666696369656E742066756E64732000000000000000000000000000 PUSH1 0x0 DUP3 ADD MSTORE POP JUMP JUMPDEST PUSH1 0x0 PUSH3 0x17BE PUSH1 0x13 DUP4 PUSH3 0x1475 JUMP JUMPDEST SWAP2 POP PUSH3 0x17CB DUP3 PUSH3 0x1786 JUMP JUMPDEST PUSH1 0x20 DUP3 ADD SWAP1 POP SWAP2 SWAP1 POP JUMP JUMPDEST PUSH1 0x0 PUSH1 0x20 DUP3 ADD SWAP1 POP DUP2 DUP2 SUB PUSH1 0x0 DUP4 ADD MSTORE PUSH3 0x17F1 DUP2 PUSH3 0x17AF JUMP JUMPDEST SWAP1 POP SWAP2 SWAP1 POP JUMP JUMPDEST PUSH32 0x53616C652068617320656E646564000000000000000000000000000000000000 PUSH1 0x0 DUP3 ADD MSTORE POP JUMP JUMPDEST PUSH1 0x0 PUSH3 0x1830 PUSH1 0xE DUP4 PUSH3 0x1475 JUMP JUMPDEST SWAP2 POP PUSH3 0x183D DUP3 PUSH3 0x17F8 JUMP JUMPDEST PUSH1 0x20 DUP3 ADD SWAP1 POP SWAP2 SWAP1 POP JUMP JUMPDEST PUSH1 0x0 PUSH1 0x20 DUP3 ADD SWAP1 POP DUP2 DUP2 SUB PUSH1 0x0 DUP4 ADD MSTORE PUSH3 0x1863 DUP2 PUSH3 0x1821 JUMP JUMPDEST SWAP1 POP SWAP2 SWAP1 POP JUMP JUMPDEST PUSH1 0x0 PUSH1 0x40 DUP3 ADD SWAP1 POP PUSH3 0x1881 PUSH1 0x0 DUP4 ADD DUP6 PUSH3 0x12C4 JUMP JUMPDEST PUSH3 0x1890 PUSH1 0x20 DUP4 ADD DUP5 PUSH3 0x12D5 JUMP JUMPDEST SWAP4 SWAP3 POP POP POP JUMP JUMPDEST PUSH1 0x0 PUSH3 0x18A4 DUP3 PUSH3 0x1129 JUMP JUMPDEST SWAP2 POP PUSH3 0x18B1 DUP4 PUSH3 0x1129 JUMP JUMPDEST SWAP3 POP DUP3 DUP3 ADD SWAP1 POP DUP1 DUP3 GT ISZERO PUSH3 0x18CC JUMPI PUSH3 0x18CB PUSH3 0x165F JUMP JUMPDEST JUMPDEST SWAP3 SWAP2 POP POP JUMP JUMPDEST PUSH32 0x4E616D6520616C72656164792065786973747300000000000000000000000000 PUSH1 0x0 DUP3 ADD MSTORE POP JUMP JUMPDEST PUSH1 0x0 PUSH3 0x190A PUSH1 0x13 DUP4 PUSH3 0x1475 JUMP JUMPDEST SWAP2 POP PUSH3 0x1917 DUP3 PUSH3 0x18D2 JUMP JUMPDEST PUSH1 0x20 DUP3 ADD SWAP1 POP SWAP2 SWAP1 POP JUMP JUMPDEST PUSH1 0x0 PUSH1 0x20 DUP3 ADD SWAP1 POP DUP2 DUP2 SUB PUSH1 0x0 DUP4 ADD MSTORE PUSH3 0x193D DUP2 PUSH3 0x18FB JUMP JUMPDEST SWAP1 POP SWAP2 SWAP1 POP JUMP JUMPDEST PUSH32 0x496E61766C696420706172616D73000000000000000000000000000000000000 PUSH1 0x0 DUP3 ADD MSTORE POP JUMP JUMPDEST PUSH1 0x0 PUSH3 0x197C PUSH1 0xE DUP4 PUSH3 0x1475 JUMP JUMPDEST SWAP2 POP PUSH3 0x1989 DUP3 PUSH3 0x1944 JUMP JUMPDEST PUSH1 0x20 DUP3 ADD SWAP1 POP SWAP2 SWAP1 POP JUMP JUMPDEST PUSH1 0x0 PUSH1 0x20 DUP3 ADD SWAP1 POP DUP2 DUP2 SUB PUSH1 0x0 DUP4 ADD MSTORE PUSH3 0x19AF DUP2 PUSH3 0x196D JUMP JUMPDEST SWAP1 POP SWAP2 SWAP1 POP JUMP JUMPDEST PUSH1 0x0 PUSH3 0x19C3 DUP3 PUSH3 0x13E3 JUMP JUMPDEST PUSH3 0x19CF DUP2 DUP6 PUSH3 0x1475 JUMP JUMPDEST SWAP4 POP PUSH3 0x19E1 DUP2 DUP6 PUSH1 0x20 DUP7 ADD PUSH3 0x13F9 JUMP JUMPDEST PUSH3 0x19EC DUP2 PUSH3 0xF80 JUMP JUMPDEST DUP5 ADD SWAP2 POP POP SWAP3 SWAP2 POP POP JUMP JUMPDEST PUSH1 0x0 PUSH1 0x40 DUP3 ADD SWAP1 POP DUP2 DUP2 SUB PUSH1 0x0 DUP4 ADD MSTORE PUSH3 0x1A13 DUP2 DUP6 PUSH3 0x19B6 JUMP JUMPDEST SWAP1 POP DUP2 DUP2 SUB PUSH1 0x20 DUP4 ADD MSTORE PUSH3 0x1A29 DUP2 DUP5 PUSH3 0x19B6 JUMP JUMPDEST SWAP1 POP SWAP4 SWAP3 POP POP POP JUMP JUMPDEST PUSH32 0x6F6E6C79206F776E65722063616E207769746864726177000000000000000000 PUSH1 0x0 DUP3 ADD MSTORE POP JUMP JUMPDEST PUSH1 0x0 PUSH3 0x1A6A PUSH1 0x17 DUP4 PUSH3 0x1475 JUMP JUMPDEST SWAP2 POP PUSH3 0x1A77 DUP3 PUSH3 0x1A32 JUMP JUMPDEST PUSH1 0x20 DUP3 ADD SWAP1 POP SWAP2 SWAP1 POP JUMP JUMPDEST PUSH1 0x0 PUSH1 0x20 DUP3 ADD SWAP1 POP DUP2 DUP2 SUB PUSH1 0x0 DUP4 ADD MSTORE PUSH3 0x1A9D DUP2 PUSH3 0x1A5B JUMP JUMPDEST SWAP1 POP SWAP2 SWAP1 POP JUMP JUMPDEST PUSH32 0x73616C6520686173206E6F7420656E6465642079657400000000000000000000 PUSH1 0x0 DUP3 ADD MSTORE POP JUMP JUMPDEST PUSH1 0x0 PUSH3 0x1ADC PUSH1 0x16 DUP4 PUSH3 0x1475 JUMP JUMPDEST SWAP2 POP PUSH3 0x1AE9 DUP3 PUSH3 0x1AA4 JUMP JUMPDEST PUSH1 0x20 DUP3 ADD SWAP1 POP SWAP2 SWAP1 POP JUMP JUMPDEST PUSH1 0x0 PUSH1 0x20 DUP3 ADD SWAP1 POP DUP2 DUP2 SUB PUSH1 0x0 DUP4 ADD MSTORE PUSH3 0x1B0F DUP2 PUSH3 0x1ACD JUMP JUMPDEST SWAP1 POP SWAP2 SWAP1 POP JUMP JUMPDEST PUSH32 0x53616C65206973206E6F74207375636365737366756C21000000000000000000 PUSH1 0x0 DUP3 ADD MSTORE POP JUMP JUMPDEST PUSH1 0x0 PUSH3 0x1B4E PUSH1 0x17 DUP4 PUSH3 0x1475 JUMP JUMPDEST SWAP2 POP PUSH3 0x1B5B DUP3 PUSH3 0x1B16 JUMP JUMPDEST PUSH1 0x20 DUP3 ADD SWAP1 POP SWAP2 SWAP1 POP JUMP JUMPDEST PUSH1 0x0 PUSH1 0x20 DUP3 ADD SWAP1 POP DUP2 DUP2 SUB PUSH1 0x0 DUP4 ADD MSTORE PUSH3 0x1B81 DUP2 PUSH3 0x1B3F JUMP JUMPDEST SWAP1 POP SWAP2 SWAP1 POP JUMP JUMPDEST PUSH32 0x4F776E61626C653A206E6577206F776E657220697320746865207A65726F2061 PUSH1 0x0 DUP3 ADD MSTORE PUSH32 0x6464726573730000000000000000000000000000000000000000000000000000 PUSH1 0x20 DUP3 ADD MSTORE POP JUMP JUMPDEST PUSH1 0x0 PUSH3 0x1BE6 PUSH1 0x26 DUP4 PUSH3 0x1475 JUMP JUMPDEST SWAP2 POP PUSH3 0x1BF3 DUP3 PUSH3 0x1B88 JUMP JUMPDEST PUSH1 0x40 DUP3 ADD SWAP1 POP SWAP2 SWAP1 POP JUMP JUMPDEST PUSH1 0x0 PUSH1 0x20 DUP3 ADD SWAP1 POP DUP2 DUP2 SUB PUSH1 0x0 DUP4 ADD MSTORE PUSH3 0x1C19 DUP2 PUSH3 0x1BD7 JUMP JUMPDEST SWAP1 POP SWAP2 SWAP1 POP JUMP JUMPDEST PUSH32 0x5265656E7472616E637947756172643A207265656E7472616E742063616C6C00 PUSH1 0x0 DUP3 ADD MSTORE POP JUMP JUMPDEST PUSH1 0x0 PUSH3 0x1C58 PUSH1 0x1F DUP4 PUSH3 0x1475 JUMP JUMPDEST SWAP2 POP PUSH3 0x1C65 DUP3 PUSH3 0x1C20 JUMP JUMPDEST PUSH1 0x20 DUP3 ADD SWAP1 POP SWAP2 SWAP1 POP JUMP JUMPDEST PUSH1 0x0 PUSH1 0x20 DUP3 ADD SWAP1 POP DUP2 DUP2 SUB PUSH1 0x0 DUP4 ADD MSTORE PUSH3 0x1C8B DUP2 PUSH3 0x1C49 JUMP JUMPDEST SWAP1 POP SWAP2 SWAP1 POP JUMP JUMPDEST PUSH32 0x4F776E61626C653A2063616C6C6572206973206E6F7420746865206F776E6572 PUSH1 0x0 DUP3 ADD MSTORE POP JUMP JUMPDEST PUSH1 0x0 PUSH3 0x1CCA PUSH1 0x20 DUP4 PUSH3 0x1475 JUMP JUMPDEST SWAP2 POP PUSH3 0x1CD7 DUP3 PUSH3 0x1C92 JUMP JUMPDEST PUSH1 0x20 DUP3 ADD SWAP1 POP SWAP2 SWAP1 POP JUMP JUMPDEST PUSH1 0x0 PUSH1 0x20 DUP3 ADD SWAP1 POP DUP2 DUP2 SUB PUSH1 0x0 DUP4 ADD MSTORE PUSH3 0x1CFD DUP2 PUSH3 0x1CBB JUMP JUMPDEST SWAP1 POP SWAP2 SWAP1 POP JUMP INVALID PUSH1 0x80 PUSH1 0x40 MSTORE CALLVALUE DUP1 ISZERO PUSH3 0x11 JUMPI PUSH1 0x0 DUP1 REVERT JUMPDEST POP PUSH1 0x40 MLOAD PUSH3 0x1A13 CODESIZE SUB DUP1 PUSH3 0x1A13 DUP4 CODECOPY DUP2 DUP2 ADD PUSH1 0x40 MSTORE DUP2 ADD SWAP1 PUSH3 0x37 SWAP2 SWAP1 PUSH3 0x1FA JUMP JUMPDEST DUP2 DUP2 DUP2 PUSH1 0x3 SWAP1 DUP2 PUSH3 0x4A SWAP2 SWAP1 PUSH3 0x4CA JUMP JUMPDEST POP DUP1 PUSH1 0x4 SWAP1 DUP2 PUSH3 0x5C SWAP2 SWAP1 PUSH3 0x4CA JUMP JUMPDEST POP POP POP POP POP PUSH3 0x5B1 JUMP JUMPDEST PUSH1 0x0 PUSH1 0x40 MLOAD SWAP1 POP SWAP1 JUMP JUMPDEST PUSH1 0x0 DUP1 REVERT JUMPDEST PUSH1 0x0 DUP1 REVERT JUMPDEST PUSH1 0x0 DUP1 REVERT JUMPDEST PUSH1 0x0 DUP1 REVERT JUMPDEST PUSH1 0x0 PUSH1 0x1F NOT PUSH1 0x1F DUP4 ADD AND SWAP1 POP SWAP2 SWAP1 POP JUMP JUMPDEST PUSH32 0x4E487B7100000000000000000000000000000000000000000000000000000000 PUSH1 0x0 MSTORE PUSH1 0x41 PUSH1 0x4 MSTORE PUSH1 0x24 PUSH1 0x0 REVERT JUMPDEST PUSH3 0xD0 DUP3 PUSH3 0x85 JUMP JUMPDEST DUP2 ADD DUP2 DUP2 LT PUSH8 0xFFFFFFFFFFFFFFFF DUP3 GT OR ISZERO PUSH3 0xF2 JUMPI PUSH3 0xF1 PUSH3 0x96 JUMP JUMPDEST JUMPDEST DUP1 PUSH1 0x40 MSTORE POP POP POP JUMP JUMPDEST PUSH1 0x0 PUSH3 0x107 PUSH3 0x67 JUMP JUMPDEST SWAP1 POP PUSH3 0x115 DUP3 DUP3 PUSH3 0xC5 JUMP JUMPDEST SWAP2 SWAP1 POP JUMP JUMPDEST PUSH1 0x0 PUSH8 0xFFFFFFFFFFFFFFFF DUP3 GT ISZERO PUSH3 0x138 JUMPI PUSH3 0x137 PUSH3 0x96 JUMP JUMPDEST JUMPDEST PUSH3 0x143 DUP3 PUSH3 0x85 JUMP JUMPDEST SWAP1 POP PUSH1 0x20 DUP2 ADD SWAP1 POP SWAP2 SWAP1 POP JUMP JUMPDEST PUSH1 0x0 JUMPDEST DUP4 DUP2 LT ISZERO PUSH3 0x170 JUMPI DUP1 DUP3 ADD MLOAD DUP2 DUP5 ADD MSTORE PUSH1 0x20 DUP2 ADD SWAP1 POP PUSH3 0x153 JUMP JUMPDEST PUSH1 0x0 DUP5 DUP5 ADD MSTORE POP POP POP POP JUMP JUMPDEST PUSH1 0x0 PUSH3 0x193 PUSH3 0x18D DUP5 PUSH3 0x11A JUMP JUMPDEST PUSH3 0xFB JUMP JUMPDEST SWAP1 POP DUP3 DUP2 MSTORE PUSH1 0x20 DUP2 ADD DUP5 DUP5 DUP5 ADD GT ISZERO PUSH3 0x1B2 JUMPI PUSH3 0x1B1 PUSH3 0x80 JUMP JUMPDEST JUMPDEST PUSH3 0x1BF DUP5 DUP3 DUP6 PUSH3 0x150 JUMP JUMPDEST POP SWAP4 SWAP3 POP POP POP JUMP JUMPDEST PUSH1 0x0 DUP3 PUSH1 0x1F DUP4 ADD SLT PUSH3 0x1DF JUMPI PUSH3 0x1DE PUSH3 0x7B JUMP JUMPDEST JUMPDEST DUP2 MLOAD PUSH3 0x1F1 DUP5 DUP3 PUSH1 0x20 DUP7 ADD PUSH3 0x17C JUMP JUMPDEST SWAP2 POP POP SWAP3 SWAP2 POP POP JUMP JUMPDEST PUSH1 0x0 DUP1 PUSH1 0x40 DUP4 DUP6 SUB SLT ISZERO PUSH3 0x214 JUMPI PUSH3 0x213 PUSH3 0x71 JUMP JUMPDEST JUMPDEST PUSH1 0x0 DUP4 ADD MLOAD PUSH8 0xFFFFFFFFFFFFFFFF DUP2 GT ISZERO PUSH3 0x235 JUMPI PUSH3 0x234 PUSH3 0x76 JUMP JUMPDEST JUMPDEST PUSH3 0x243 DUP6 DUP3 DUP7 ADD PUSH3 0x1C7 JUMP JUMPDEST SWAP3 POP POP PUSH1 0x20 DUP4 ADD MLOAD PUSH8 0xFFFFFFFFFFFFFFFF DUP2 GT ISZERO PUSH3 0x267 JUMPI PUSH3 0x266 PUSH3 0x76 JUMP JUMPDEST JUMPDEST PUSH3 0x275 DUP6 DUP3 DUP7 ADD PUSH3 0x1C7 JUMP JUMPDEST SWAP2 POP POP SWAP3 POP SWAP3 SWAP1 POP JUMP JUMPDEST PUSH1 0x0 DUP2 MLOAD SWAP1 POP SWAP2 SWAP1 POP JUMP JUMPDEST PUSH32 0x4E487B7100000000000000000000000000000000000000000000000000000000 PUSH1 0x0 MSTORE PUSH1 0x22 PUSH1 0x4 MSTORE PUSH1 0x24 PUSH1 0x0 REVERT JUMPDEST PUSH1 0x0 PUSH1 0x2 DUP3 DIV SWAP1 POP PUSH1 0x1 DUP3 AND DUP1 PUSH3 0x2D2 JUMPI PUSH1 0x7F DUP3 AND SWAP2 POP JUMPDEST PUSH1 0x20 DUP3 LT DUP2 SUB PUSH3 0x2E8 JUMPI PUSH3 0x2E7 PUSH3 0x28A JUMP JUMPDEST JUMPDEST POP SWAP2 SWAP1 POP JUMP JUMPDEST PUSH1 0x0 DUP2 SWAP1 POP DUP2 PUSH1 0x0 MSTORE PUSH1 0x20 PUSH1 0x0 KECCAK256 SWAP1 POP SWAP2 SWAP1 POP JUMP JUMPDEST PUSH1 0x0 PUSH1 0x20 PUSH1 0x1F DUP4 ADD DIV SWAP1 POP SWAP2 SWAP1 POP JUMP JUMPDEST PUSH1 0x0 DUP3 DUP3 SHL SWAP1 POP SWAP3 SWAP2 POP POP JUMP JUMPDEST PUSH1 0x0 PUSH1 0x8 DUP4 MUL PUSH3 0x352 PUSH32 0xFFFFFFFFFFFFFFFFFFFFFFFFFFFFFFFFFFFFFFFFFFFFFFFFFFFFFFFFFFFFFFFF DUP3 PUSH3 0x313 JUMP JUMPDEST PUSH3 0x35E DUP7 DUP4 PUSH3 0x313 JUMP JUMPDEST SWAP6 POP DUP1 NOT DUP5 AND SWAP4 POP DUP1 DUP7 AND DUP5 OR SWAP3 POP POP POP SWAP4 SWAP3 POP POP POP JUMP JUMPDEST PUSH1 0x0 DUP2 SWAP1 POP SWAP2 SWAP1 POP JUMP JUMPDEST PUSH1 0x0 DUP2 SWAP1 POP SWAP2 SWAP1 POP JUMP JUMPDEST PUSH1 0x0 PUSH3 0x3AB PUSH3 0x3A5 PUSH3 0x39F DUP5 PUSH3 0x376 JUMP JUMPDEST PUSH3 0x380 JUMP JUMPDEST PUSH3 0x376 JUMP JUMPDEST SWAP1 POP SWAP2 SWAP1 POP JUMP JUMPDEST PUSH1 0x0 DUP2 SWAP1 POP SWAP2 SWAP1 POP JUMP JUMPDEST PUSH3 0x3C7 DUP4 PUSH3 0x38A JUMP JUMPDEST PUSH3 0x3DF PUSH3 0x3D6 DUP3 PUSH3 0x3B2 JUMP JUMPDEST DUP5 DUP5 SLOAD PUSH3 0x320 JUMP JUMPDEST DUP3 SSTORE POP POP POP POP JUMP JUMPDEST PUSH1 0x0 SWAP1 JUMP JUMPDEST PUSH3 0x3F6 PUSH3 0x3E7 JUMP JUMPDEST PUSH3 0x403 DUP2 DUP5 DUP5 PUSH3 0x3BC JUMP JUMPDEST POP POP POP JUMP JUMPDEST JUMPDEST DUP2 DUP2 LT ISZERO PUSH3 0x42B JUMPI PUSH3 0x41F PUSH1 0x0 DUP3 PUSH3 0x3EC JUMP JUMPDEST PUSH1 0x1 DUP2 ADD SWAP1 POP PUSH3 0x409 JUMP JUMPDEST POP POP JUMP JUMPDEST PUSH1 0x1F DUP3 GT ISZERO PUSH3 0x47A JUMPI PUSH3 0x444 DUP2 PUSH3 0x2EE JUMP JUMPDEST PUSH3 0x44F DUP5 PUSH3 0x303 JUMP JUMPDEST DUP2 ADD PUSH1 0x20 DUP6 LT ISZERO PUSH3 0x45F JUMPI DUP2 SWAP1 POP JUMPDEST PUSH3 0x477 PUSH3 0x46E DUP6 PUSH3 0x303 JUMP JUMPDEST DUP4 ADD DUP3 PUSH3 0x408 JUMP JUMPDEST POP POP JUMPDEST POP POP POP JUMP JUMPDEST PUSH1 0x0 DUP3 DUP3 SHR SWAP1 POP SWAP3 SWAP2 POP POP JUMP JUMPDEST PUSH1 0x0 PUSH3 0x49F PUSH1 0x0 NOT DUP5 PUSH1 0x8 MUL PUSH3 0x47F JUMP JUMPDEST NOT DUP1 DUP4 AND SWAP2 POP POP SWAP3 SWAP2 POP POP JUMP JUMPDEST PUSH1 0x0 PUSH3 0x4BA DUP4 DUP4 PUSH3 0x48C JUMP JUMPDEST SWAP2 POP DUP3 PUSH1 0x2 MUL DUP3 OR SWAP1 POP SWAP3 SWAP2 POP POP JUMP JUMPDEST PUSH3 0x4D5 DUP3 PUSH3 0x27F JUMP JUMPDEST PUSH8 0xFFFFFFFFFFFFFFFF DUP2 GT ISZERO PUSH3 0x4F1 JUMPI PUSH3 0x4F0 PUSH3 0x96 JUMP JUMPDEST JUMPDEST PUSH3 0x4FD DUP3 SLOAD PUSH3 0x2B9 JUMP JUMPDEST PUSH3 0x50A DUP3 DUP3 DUP6 PUSH3 0x42F JUMP JUMPDEST PUSH1 0x0 PUSH1 0x20 SWAP1 POP PUSH1 0x1F DUP4 GT PUSH1 0x1 DUP2 EQ PUSH3 0x542 JUMPI PUSH1 0x0 DUP5 ISZERO PUSH3 0x52D JUMPI DUP3 DUP8 ADD MLOAD SWAP1 POP JUMPDEST PUSH3 0x539 DUP6 DUP3 PUSH3 0x4AC JUMP JUMPDEST DUP7 SSTORE POP PUSH3 0x5A9 JUMP JUMPDEST PUSH1 0x1F NOT DUP5 AND PUSH3 0x552 DUP7 PUSH3 0x2EE JUMP JUMPDEST PUSH1 0x0 JUMPDEST DUP3 DUP2 LT ISZERO PUSH3 0x57C JUMPI DUP5 DUP10 ADD MLOAD DUP3 SSTORE PUSH1 0x1 DUP3 ADD SWAP2 POP PUSH1 0x20 DUP6 ADD SWAP5 POP PUSH1 0x20 DUP2 ADD SWAP1 POP PUSH3 0x555 JUMP JUMPDEST DUP7 DUP4 LT ISZERO PUSH3 0x59C JUMPI DUP5 DUP10 ADD MLOAD PUSH3 0x598 PUSH1 0x1F DUP10 AND DUP3 PUSH3 0x48C JUMP JUMPDEST DUP4 SSTORE POP JUMPDEST PUSH1 0x1 PUSH1 0x2 DUP9 MUL ADD DUP9 SSTORE POP POP POP JUMPDEST POP POP POP POP POP POP JUMP JUMPDEST PUSH2 0x1452 DUP1 PUSH3 0x5C1 PUSH1 0x0 CODECOPY PUSH1 0x0 RETURN INVALID PUSH1 0x80 PUSH1 0x40 MSTORE CALLVALUE DUP1 ISZERO PUSH2 0x10 JUMPI PUSH1 0x0 DUP1 REVERT JUMPDEST POP PUSH1 0x4 CALLDATASIZE LT PUSH2 0xB4 JUMPI PUSH1 0x0 CALLDATALOAD PUSH1 0xE0 SHR DUP1 PUSH4 0x70A08231 GT PUSH2 0x71 JUMPI DUP1 PUSH4 0x70A08231 EQ PUSH2 0x1A3 JUMPI DUP1 PUSH4 0x95D89B41 EQ PUSH2 0x1D3 JUMPI DUP1 PUSH4 0x97304CED EQ PUSH2 0x1F1 JUMPI DUP1 PUSH4 0xA457C2D7 EQ PUSH2 0x20D JUMPI DUP1 PUSH4 0xA9059CBB EQ PUSH2 0x23D JUMPI DUP1 PUSH4 0xDD62ED3E EQ PUSH2 0x26D JUMPI PUSH2 0xB4 JUMP JUMPDEST DUP1 PUSH4 0x6FDDE03 EQ PUSH2 0xB9 JUMPI DUP1 PUSH4 0x95EA7B3 EQ PUSH2 0xD7 JUMPI DUP1 PUSH4 0x18160DDD EQ PUSH2 0x107 JUMPI DUP1 PUSH4 0x23B872DD EQ PUSH2 0x125 JUMPI DUP1 PUSH4 0x313CE567 EQ PUSH2 0x155 JUMPI DUP1 PUSH4 0x39509351 EQ PUSH2 0x173 JUMPI JUMPDEST PUSH1 0x0 DUP1 REVERT JUMPDEST PUSH2 0xC1 PUSH2 0x29D JUMP JUMPDEST PUSH1 0x40 MLOAD PUSH2 0xCE SWAP2 SWAP1 PUSH2 0xC96 JUMP JUMPDEST PUSH1 0x40 MLOAD DUP1 SWAP2 SUB SWAP1 RETURN JUMPDEST PUSH2 0xF1 PUSH1 0x4 DUP1 CALLDATASIZE SUB DUP2 ADD SWAP1 PUSH2 0xEC SWAP2 SWAP1 PUSH2 0xD51 JUMP JUMPDEST PUSH2 0x32F JUMP JUMPDEST PUSH1 0x40 MLOAD PUSH2 0xFE SWAP2 SWAP1 PUSH2 0xDAC JUMP JUMPDEST PUSH1 0x40 MLOAD DUP1 SWAP2 SUB SWAP1 RETURN JUMPDEST PUSH2 0x10F PUSH2 0x352 JUMP JUMPDEST PUSH1 0x40 MLOAD PUSH2 0x11C SWAP2 SWAP1 PUSH2 0xDD6 JUMP JUMPDEST PUSH1 0x40 MLOAD DUP1 SWAP2 SUB SWAP1 RETURN JUMPDEST PUSH2 0x13F PUSH1 0x4 DUP1 CALLDATASIZE SUB DUP2 ADD SWAP1 PUSH2 0x13A SWAP2 SWAP1 PUSH2 0xDF1 JUMP JUMPDEST PUSH2 0x35C JUMP JUMPDEST PUSH1 0x40 MLOAD PUSH2 0x14C SWAP2 SWAP1 PUSH2 0xDAC JUMP JUMPDEST PUSH1 0x40 MLOAD DUP1 SWAP2 SUB SWAP1 RETURN JUMPDEST PUSH2 0x15D PUSH2 0x38B JUMP JUMPDEST PUSH1 0x40 MLOAD PUSH2 0x16A SWAP2 SWAP1 PUSH2 0xE60 JUMP JUMPDEST PUSH1 0x40 MLOAD DUP1 SWAP2 SUB SWAP1 RETURN JUMPDEST PUSH2 0x18D PUSH1 0x4 DUP1 CALLDATASIZE SUB DUP2 ADD SWAP1 PUSH2 0x188 SWAP2 SWAP1 PUSH2 0xD51 JUMP JUMPDEST PUSH2 0x394 JUMP JUMPDEST PUSH1 0x40 MLOAD PUSH2 0x19A SWAP2 SWAP1 PUSH2 0xDAC JUMP JUMPDEST PUSH1 0x40 MLOAD DUP1 SWAP2 SUB SWAP1 RETURN JUMPDEST PUSH2 0x1BD PUSH1 0x4 DUP1 CALLDATASIZE SUB DUP2 ADD SWAP1 PUSH2 0x1B8 SWAP2 SWAP1 PUSH2 0xE7B JUMP JUMPDEST PUSH2 0x3CB JUMP JUMPDEST PUSH1 0x40 MLOAD PUSH2 0x1CA SWAP2 SWAP1 PUSH2 0xDD6 JUMP JUMPDEST PUSH1 0x40 MLOAD DUP1 SWAP2 SUB SWAP1 RETURN JUMPDEST PUSH2 0x1DB PUSH2 0x413 JUMP JUMPDEST PUSH1 0x40 MLOAD PUSH2 0x1E8 SWAP2 SWAP1 PUSH2 0xC96 JUMP JUMPDEST PUSH1 0x40 MLOAD DUP1 SWAP2 SUB SWAP1 RETURN JUMPDEST PUSH2 0x20B PUSH1 0x4 DUP1 CALLDATASIZE SUB DUP2 ADD SWAP1 PUSH2 0x206 SWAP2 SWAP1 PUSH2 0xEA8 JUMP JUMPDEST PUSH2 0x4A5 JUMP JUMPDEST STOP JUMPDEST PUSH2 0x227 PUSH1 0x4 DUP1 CALLDATASIZE SUB DUP2 ADD SWAP1 PUSH2 0x222 SWAP2 SWAP1 PUSH2 0xD51 JUMP JUMPDEST PUSH2 0x4B2 JUMP JUMPDEST PUSH1 0x40 MLOAD PUSH2 0x234 SWAP2 SWAP1 PUSH2 0xDAC JUMP JUMPDEST PUSH1 0x40 MLOAD DUP1 SWAP2 SUB SWAP1 RETURN JUMPDEST PUSH2 0x257 PUSH1 0x4 DUP1 CALLDATASIZE SUB DUP2 ADD SWAP1 PUSH2 0x252 SWAP2 SWAP1 PUSH2 0xD51 JUMP JUMPDEST PUSH2 0x529 JUMP JUMPDEST PUSH1 0x40 MLOAD PUSH2 0x264 SWAP2 SWAP1 PUSH2 0xDAC JUMP JUMPDEST PUSH1 0x40 MLOAD DUP1 SWAP2 SUB SWAP1 RETURN JUMPDEST PUSH2 0x287 PUSH1 0x4 DUP1 CALLDATASIZE SUB DUP2 ADD SWAP1 PUSH2 0x282 SWAP2 SWAP1 PUSH2 0xED5 JUMP JUMPDEST PUSH2 0x54C JUMP JUMPDEST PUSH1 0x40 MLOAD PUSH2 0x294 SWAP2 SWAP1 PUSH2 0xDD6 JUMP JUMPDEST PUSH1 0x40 MLOAD DUP1 SWAP2 SUB SWAP1 RETURN JUMPDEST PUSH1 0x60 PUSH1 0x3 DUP1 SLOAD PUSH2 0x2AC SWAP1 PUSH2 0xF44 JUMP JUMPDEST DUP1 PUSH1 0x1F ADD PUSH1 0x20 DUP1 SWAP2 DIV MUL PUSH1 0x20 ADD PUSH1 0x40 MLOAD SWAP1 DUP2 ADD PUSH1 0x40 MSTORE DUP1 SWAP3 SWAP2 SWAP1 DUP2 DUP2 MSTORE PUSH1 0x20 ADD DUP3 DUP1 SLOAD PUSH2 0x2D8 SWAP1 PUSH2 0xF44 JUMP JUMPDEST DUP1 ISZERO PUSH2 0x325 JUMPI DUP1 PUSH1 0x1F LT PUSH2 0x2FA JUMPI PUSH2 0x100 DUP1 DUP4 SLOAD DIV MUL DUP4 MSTORE SWAP2 PUSH1 0x20 ADD SWAP2 PUSH2 0x325 JUMP JUMPDEST DUP3 ADD SWAP2 SWAP1 PUSH1 0x0 MSTORE PUSH1 0x20 PUSH1 0x0 KECCAK256 SWAP1 JUMPDEST DUP2 SLOAD DUP2 MSTORE SWAP1 PUSH1 0x1 ADD SWAP1 PUSH1 0x20 ADD DUP1 DUP4 GT PUSH2 0x308 JUMPI DUP3 SWAP1 SUB PUSH1 0x1F AND DUP3 ADD SWAP2 JUMPDEST POP POP POP POP POP SWAP1 POP SWAP1 JUMP JUMPDEST PUSH1 0x0 DUP1 PUSH2 0x33A PUSH2 0x5D3 JUMP JUMPDEST SWAP1 POP PUSH2 0x347 DUP2 DUP6 DUP6 PUSH2 0x5DB JUMP JUMPDEST PUSH1 0x1 SWAP2 POP POP SWAP3 SWAP2 POP POP JUMP JUMPDEST PUSH1 0x0 PUSH1 0x2 SLOAD SWAP1 POP SWAP1 JUMP JUMPDEST PUSH1 0x0 DUP1 PUSH2 0x367 PUSH2 0x5D3 JUMP JUMPDEST SWAP1 POP PUSH2 0x374 DUP6 DUP3 DUP6 PUSH2 0x7A4 JUMP JUMPDEST PUSH2 0x37F DUP6 DUP6 DUP6 PUSH2 0x830 JUMP JUMPDEST PUSH1 0x1 SWAP2 POP POP SWAP4 SWAP3 POP POP POP JUMP JUMPDEST PUSH1 0x0 PUSH1 0x12 SWAP1 POP SWAP1 JUMP JUMPDEST PUSH1 0x0 DUP1 PUSH2 0x39F PUSH2 0x5D3 JUMP JUMPDEST SWAP1 POP PUSH2 0x3C0 DUP2 DUP6 DUP6 PUSH2 0x3B1 DUP6 DUP10 PUSH2 0x54C JUMP JUMPDEST PUSH2 0x3BB SWAP2 SWAP1 PUSH2 0xFA4 JUMP JUMPDEST PUSH2 0x5DB JUMP JUMPDEST PUSH1 0x1 SWAP2 POP POP SWAP3 SWAP2 POP POP JUMP JUMPDEST PUSH1 0x0 DUP1 PUSH1 0x0 DUP4 PUSH20 0xFFFFFFFFFFFFFFFFFFFFFFFFFFFFFFFFFFFFFFFF AND PUSH20 0xFFFFFFFFFFFFFFFFFFFFFFFFFFFFFFFFFFFFFFFF AND DUP2 MSTORE PUSH1 0x20 ADD SWAP1 DUP2 MSTORE PUSH1 0x20 ADD PUSH1 0x0 KECCAK256 SLOAD SWAP1 POP SWAP2 SWAP1 POP JUMP JUMPDEST PUSH1 0x60 PUSH1 0x4 DUP1 SLOAD PUSH2 0x422 SWAP1 PUSH2 0xF44 JUMP JUMPDEST DUP1 PUSH1 0x1F ADD PUSH1 0x20 DUP1 SWAP2 DIV MUL PUSH1 0x20 ADD PUSH1 0x40 MLOAD SWAP1 DUP2 ADD PUSH1 0x40 MSTORE DUP1 SWAP3 SWAP2 SWAP1 DUP2 DUP2 MSTORE PUSH1 0x20 ADD DUP3 DUP1 SLOAD PUSH2 0x44E SWAP1 PUSH2 0xF44 JUMP JUMPDEST DUP1 ISZERO PUSH2 0x49B JUMPI DUP1 PUSH1 0x1F LT PUSH2 0x470 JUMPI PUSH2 0x100 DUP1 DUP4 SLOAD DIV MUL DUP4 MSTORE SWAP2 PUSH1 0x20 ADD SWAP2 PUSH2 0x49B JUMP JUMPDEST DUP3 ADD SWAP2 SWAP1 PUSH1 0x0 MSTORE PUSH1 0x20 PUSH1 0x0 KECCAK256 SWAP1 JUMPDEST DUP2 SLOAD DUP2 MSTORE SWAP1 PUSH1 0x1 ADD SWAP1 PUSH1 0x20 ADD DUP1 DUP4 GT PUSH2 0x47E JUMPI DUP3 SWAP1 SUB PUSH1 0x1F AND DUP3 ADD SWAP2 JUMPDEST POP POP POP POP POP SWAP1 POP SWAP1 JUMP JUMPDEST PUSH2 0x4AF CALLER DUP3 PUSH2 0xAA6 JUMP JUMPDEST POP JUMP JUMPDEST PUSH1 0x0 DUP1 PUSH2 0x4BD PUSH2 0x5D3 JUMP JUMPDEST SWAP1 POP PUSH1 0x0 PUSH2 0x4CB DUP3 DUP7 PUSH2 0x54C JUMP JUMPDEST SWAP1 POP DUP4 DUP2 LT ISZERO PUSH2 0x510 JUMPI PUSH1 0x40 MLOAD PUSH32 0x8C379A000000000000000000000000000000000000000000000000000000000 DUP2 MSTORE PUSH1 0x4 ADD PUSH2 0x507 SWAP1 PUSH2 0x104A JUMP JUMPDEST PUSH1 0x40 MLOAD DUP1 SWAP2 SUB SWAP1 REVERT JUMPDEST PUSH2 0x51D DUP3 DUP7 DUP7 DUP5 SUB PUSH2 0x5DB JUMP JUMPDEST PUSH1 0x1 SWAP3 POP POP POP SWAP3 SWAP2 POP POP JUMP JUMPDEST PUSH1 0x0 DUP1 PUSH2 0x534 PUSH2 0x5D3 JUMP JUMPDEST SWAP1 POP PUSH2 0x541 DUP2 DUP6 DUP6 PUSH2 0x830 JUMP JUMPDEST PUSH1 0x1 SWAP2 POP POP SWAP3 SWAP2 POP POP JUMP JUMPDEST PUSH1 0x0 PUSH1 0x1 PUSH1 0x0 DUP5 PUSH20 0xFFFFFFFFFFFFFFFFFFFFFFFFFFFFFFFFFFFFFFFF AND PUSH20 0xFFFFFFFFFFFFFFFFFFFFFFFFFFFFFFFFFFFFFFFF AND DUP2 MSTORE PUSH1 0x20 ADD SWAP1 DUP2 MSTORE PUSH1 0x20 ADD PUSH1 0x0 KECCAK256 PUSH1 0x0 DUP4 PUSH20 0xFFFFFFFFFFFFFFFFFFFFFFFFFFFFFFFFFFFFFFFF AND PUSH20 0xFFFFFFFFFFFFFFFFFFFFFFFFFFFFFFFFFFFFFFFF AND DUP2 MSTORE PUSH1 0x20 ADD SWAP1 DUP2 MSTORE PUSH1 0x20 ADD PUSH1 0x0 KECCAK256 SLOAD SWAP1 POP SWAP3 SWAP2 POP POP JUMP JUMPDEST PUSH1 0x0 CALLER SWAP1 POP SWAP1 JUMP JUMPDEST PUSH1 0x0 PUSH20 0xFFFFFFFFFFFFFFFFFFFFFFFFFFFFFFFFFFFFFFFF AND DUP4 PUSH20 0xFFFFFFFFFFFFFFFFFFFFFFFFFFFFFFFFFFFFFFFF AND SUB PUSH2 0x64A JUMPI PUSH1 0x40 MLOAD PUSH32 0x8C379A000000000000000000000000000000000000000000000000000000000 DUP2 MSTORE PUSH1 0x4 ADD PUSH2 0x641 SWAP1 PUSH2 0x10DC JUMP JUMPDEST PUSH1 0x40 MLOAD DUP1 SWAP2 SUB SWAP1 REVERT JUMPDEST PUSH1 0x0 PUSH20 0xFFFFFFFFFFFFFFFFFFFFFFFFFFFFFFFFFFFFFFFF AND DUP3 PUSH20 0xFFFFFFFFFFFFFFFFFFFFFFFFFFFFFFFFFFFFFFFF AND SUB PUSH2 0x6B9 JUMPI PUSH1 0x40 MLOAD PUSH32 0x8C379A000000000000000000000000000000000000000000000000000000000 DUP2 MSTORE PUSH1 0x4 ADD PUSH2 0x6B0 SWAP1 PUSH2 0x116E JUMP JUMPDEST PUSH1 0x40 MLOAD DUP1 SWAP2 SUB SWAP1 REVERT JUMPDEST DUP1 PUSH1 0x1 PUSH1 0x0 DUP6 PUSH20 0xFFFFFFFFFFFFFFFFFFFFFFFFFFFFFFFFFFFFFFFF AND PUSH20 0xFFFFFFFFFFFFFFFFFFFFFFFFFFFFFFFFFFFFFFFF AND DUP2 MSTORE PUSH1 0x20 ADD SWAP1 DUP2 MSTORE PUSH1 0x20 ADD PUSH1 0x0 KECCAK256 PUSH1 0x0 DUP5 PUSH20 0xFFFFFFFFFFFFFFFFFFFFFFFFFFFFFFFFFFFFFFFF AND PUSH20 0xFFFFFFFFFFFFFFFFFFFFFFFFFFFFFFFFFFFFFFFF AND DUP2 MSTORE PUSH1 0x20 ADD SWAP1 DUP2 MSTORE PUSH1 0x20 ADD PUSH1 0x0 KECCAK256 DUP2 SWAP1 SSTORE POP DUP2 PUSH20 0xFFFFFFFFFFFFFFFFFFFFFFFFFFFFFFFFFFFFFFFF AND DUP4 PUSH20 0xFFFFFFFFFFFFFFFFFFFFFFFFFFFFFFFFFFFFFFFF AND PUSH32 0x8C5BE1E5EBEC7D5BD14F71427D1E84F3DD0314C0F7B2291E5B200AC8C7C3B925 DUP4 PUSH1 0x40 MLOAD PUSH2 0x797 SWAP2 SWAP1 PUSH2 0xDD6 JUMP JUMPDEST PUSH1 0x40 MLOAD DUP1 SWAP2 SUB SWAP1 LOG3 POP POP POP JUMP JUMPDEST PUSH1 0x0 PUSH2 0x7B0 DUP5 DUP5 PUSH2 0x54C JUMP JUMPDEST SWAP1 POP PUSH32 0xFFFFFFFFFFFFFFFFFFFFFFFFFFFFFFFFFFFFFFFFFFFFFFFFFFFFFFFFFFFFFFFF DUP2 EQ PUSH2 0x82A JUMPI DUP2 DUP2 LT ISZERO PUSH2 0x81C JUMPI PUSH1 0x40 MLOAD PUSH32 0x8C379A000000000000000000000000000000000000000000000000000000000 DUP2 MSTORE PUSH1 0x4 ADD PUSH2 0x813 SWAP1 PUSH2 0x11DA JUMP JUMPDEST PUSH1 0x40 MLOAD DUP1 SWAP2 SUB SWAP1 REVERT JUMPDEST PUSH2 0x829 DUP5 DUP5 DUP5 DUP5 SUB PUSH2 0x5DB JUMP JUMPDEST JUMPDEST POP POP POP POP JUMP JUMPDEST PUSH1 0x0 PUSH20 0xFFFFFFFFFFFFFFFFFFFFFFFFFFFFFFFFFFFFFFFF AND DUP4 PUSH20 0xFFFFFFFFFFFFFFFFFFFFFFFFFFFFFFFFFFFFFFFF AND SUB PUSH2 0x89F JUMPI PUSH1 0x40 MLOAD PUSH32 0x8C379A000000000000000000000000000000000000000000000000000000000 DUP2 MSTORE PUSH1 0x4 ADD PUSH2 0x896 SWAP1 PUSH2 0x126C JUMP JUMPDEST PUSH1 0x40 MLOAD DUP1 SWAP2 SUB SWAP1 REVERT JUMPDEST PUSH1 0x0 PUSH20 0xFFFFFFFFFFFFFFFFFFFFFFFFFFFFFFFFFFFFFFFF AND DUP3 PUSH20 0xFFFFFFFFFFFFFFFFFFFFFFFFFFFFFFFFFFFFFFFF AND SUB PUSH2 0x90E JUMPI PUSH1 0x40 MLOAD PUSH32 0x8C379A000000000000000000000000000000000000000000000000000000000 DUP2 MSTORE PUSH1 0x4 ADD PUSH2 0x905 SWAP1 PUSH2 0x12FE JUMP JUMPDEST PUSH1 0x40 MLOAD DUP1 SWAP2 SUB SWAP1 REVERT JUMPDEST PUSH2 0x919 DUP4 DUP4 DUP4 PUSH2 0xBFC JUMP JUMPDEST PUSH1 0x0 DUP1 PUSH1 0x0 DUP6 PUSH20 0xFFFFFFFFFFFFFFFFFFFFFFFFFFFFFFFFFFFFFFFF AND PUSH20 0xFFFFFFFFFFFFFFFFFFFFFFFFFFFFFFFFFFFFFFFF AND DUP2 MSTORE PUSH1 0x20 ADD SWAP1 DUP2 MSTORE PUSH1 0x20 ADD PUSH1 0x0 KECCAK256 SLOAD SWAP1 POP DUP2 DUP2 LT ISZERO PUSH2 0x99F JUMPI PUSH1 0x40 MLOAD PUSH32 0x8C379A000000000000000000000000000000000000000000000000000000000 DUP2 MSTORE PUSH1 0x4 ADD PUSH2 0x996 SWAP1 PUSH2 0x1390 JUMP JUMPDEST PUSH1 0x40 MLOAD DUP1 SWAP2 SUB SWAP1 REVERT JUMPDEST DUP2 DUP2 SUB PUSH1 0x0 DUP1 DUP7 PUSH20 0xFFFFFFFFFFFFFFFFFFFFFFFFFFFFFFFFFFFFFFFF AND PUSH20 0xFFFFFFFFFFFFFFFFFFFFFFFFFFFFFFFFFFFFFFFF AND DUP2 MSTORE PUSH1 0x20 ADD SWAP1 DUP2 MSTORE PUSH1 0x20 ADD PUSH1 0x0 KECCAK256 DUP2 SWAP1 SSTORE POP DUP2 PUSH1 0x0 DUP1 DUP6 PUSH20 0xFFFFFFFFFFFFFFFFFFFFFFFFFFFFFFFFFFFFFFFF AND PUSH20 0xFFFFFFFFFFFFFFFFFFFFFFFFFFFFFFFFFFFFFFFF AND DUP2 MSTORE PUSH1 0x20 ADD SWAP1 DUP2 MSTORE PUSH1 0x20 ADD PUSH1 0x0 KECCAK256 PUSH1 0x0 DUP3 DUP3 SLOAD ADD SWAP3 POP POP DUP2 SWAP1 SSTORE POP DUP3 PUSH20 0xFFFFFFFFFFFFFFFFFFFFFFFFFFFFFFFFFFFFFFFF AND DUP5 PUSH20 0xFFFFFFFFFFFFFFFFFFFFFFFFFFFFFFFFFFFFFFFF AND PUSH32 0xDDF252AD1BE2C89B69C2B068FC378DAA952BA7F163C4A11628F55A4DF523B3EF DUP5 PUSH1 0x40 MLOAD PUSH2 0xA8D SWAP2 SWAP1 PUSH2 0xDD6 JUMP JUMPDEST PUSH1 0x40 MLOAD DUP1 SWAP2 SUB SWAP1 LOG3 PUSH2 0xAA0 DUP5 DUP5 DUP5 PUSH2 0xC01 JUMP JUMPDEST POP POP POP POP JUMP JUMPDEST PUSH1 0x0 PUSH20 0xFFFFFFFFFFFFFFFFFFFFFFFFFFFFFFFFFFFFFFFF AND DUP3 PUSH20 0xFFFFFFFFFFFFFFFFFFFFFFFFFFFFFFFFFFFFFFFF AND SUB PUSH2 0xB15 JUMPI PUSH1 0x40 MLOAD PUSH32 0x8C379A000000000000000000000000000000000000000000000000000000000 DUP2 MSTORE PUSH1 0x4 ADD PUSH2 0xB0C SWAP1 PUSH2 0x13FC JUMP JUMPDEST PUSH1 0x40 MLOAD DUP1 SWAP2 SUB SWAP1 REVERT JUMPDEST PUSH2 0xB21 PUSH1 0x0 DUP4 DUP4 PUSH2 0xBFC JUMP JUMPDEST DUP1 PUSH1 0x2 PUSH1 0x0 DUP3 DUP3 SLOAD PUSH2 0xB33 SWAP2 SWAP1 PUSH2 0xFA4 JUMP JUMPDEST SWAP3 POP POP DUP2 SWAP1 SSTORE POP DUP1 PUSH1 0x0 DUP1 DUP5 PUSH20 0xFFFFFFFFFFFFFFFFFFFFFFFFFFFFFFFFFFFFFFFF AND PUSH20 0xFFFFFFFFFFFFFFFFFFFFFFFFFFFFFFFFFFFFFFFF AND DUP2 MSTORE PUSH1 0x20 ADD SWAP1 DUP2 MSTORE PUSH1 0x20 ADD PUSH1 0x0 KECCAK256 PUSH1 0x0 DUP3 DUP3 SLOAD ADD SWAP3 POP POP DUP2 SWAP1 SSTORE POP DUP2 PUSH20 0xFFFFFFFFFFFFFFFFFFFFFFFFFFFFFFFFFFFFFFFF AND PUSH1 0x0 PUSH20 0xFFFFFFFFFFFFFFFFFFFFFFFFFFFFFFFFFFFFFFFF AND PUSH32 0xDDF252AD1BE2C89B69C2B068FC378DAA952BA7F163C4A11628F55A4DF523B3EF DUP4 PUSH1 0x40 MLOAD PUSH2 0xBE4 SWAP2 SWAP1 PUSH2 0xDD6 JUMP JUMPDEST PUSH1 0x40 MLOAD DUP1 SWAP2 SUB SWAP1 LOG3 PUSH2 0xBF8 PUSH1 0x0 DUP4 DUP4 PUSH2 0xC01 JUMP JUMPDEST POP POP JUMP JUMPDEST POP POP POP JUMP JUMPDEST POP POP POP JUMP JUMPDEST PUSH1 0x0 DUP2 MLOAD SWAP1 POP SWAP2 SWAP1 POP JUMP JUMPDEST PUSH1 0x0 DUP3 DUP3 MSTORE PUSH1 0x20 DUP3 ADD SWAP1 POP SWAP3 SWAP2 POP POP JUMP JUMPDEST PUSH1 0x0 JUMPDEST DUP4 DUP2 LT ISZERO PUSH2 0xC40 JUMPI DUP1 DUP3 ADD MLOAD DUP2 DUP5 ADD MSTORE PUSH1 0x20 DUP2 ADD SWAP1 POP PUSH2 0xC25 JUMP JUMPDEST PUSH1 0x0 DUP5 DUP5 ADD MSTORE POP POP POP POP JUMP JUMPDEST PUSH1 0x0 PUSH1 0x1F NOT PUSH1 0x1F DUP4 ADD AND SWAP1 POP SWAP2 SWAP1 POP JUMP JUMPDEST PUSH1 0x0 PUSH2 0xC68 DUP3 PUSH2 0xC06 JUMP JUMPDEST PUSH2 0xC72 DUP2 DUP6 PUSH2 0xC11 JUMP JUMPDEST SWAP4 POP PUSH2 0xC82 DUP2 DUP6 PUSH1 0x20 DUP7 ADD PUSH2 0xC22 JUMP JUMPDEST PUSH2 0xC8B DUP2 PUSH2 0xC4C JUMP JUMPDEST DUP5 ADD SWAP2 POP POP SWAP3 SWAP2 POP POP JUMP JUMPDEST PUSH1 0x0 PUSH1 0x20 DUP3 ADD SWAP1 POP DUP2 DUP2 SUB PUSH1 0x0 DUP4 ADD MSTORE PUSH2 0xCB0 DUP2 DUP5 PUSH2 0xC5D JUMP JUMPDEST SWAP1 POP SWAP3 SWAP2 POP POP JUMP JUMPDEST PUSH1 0x0 DUP1 REVERT JUMPDEST PUSH1 0x0 PUSH20 0xFFFFFFFFFFFFFFFFFFFFFFFFFFFFFFFFFFFFFFFF DUP3 AND SWAP1 POP SWAP2 SWAP1 POP JUMP JUMPDEST PUSH1 0x0 PUSH2 0xCE8 DUP3 PUSH2 0xCBD JUMP JUMPDEST SWAP1 POP SWAP2 SWAP1 POP JUMP JUMPDEST PUSH2 0xCF8 DUP2 PUSH2 0xCDD JUMP JUMPDEST DUP2 EQ PUSH2 0xD03 JUMPI PUSH1 0x0 DUP1 REVERT JUMPDEST POP JUMP JUMPDEST PUSH1 0x0 DUP2 CALLDATALOAD SWAP1 POP PUSH2 0xD15 DUP2 PUSH2 0xCEF JUMP JUMPDEST SWAP3 SWAP2 POP POP JUMP JUMPDEST PUSH1 0x0 DUP2 SWAP1 POP SWAP2 SWAP1 POP JUMP JUMPDEST PUSH2 0xD2E DUP2 PUSH2 0xD1B JUMP JUMPDEST DUP2 EQ PUSH2 0xD39 JUMPI PUSH1 0x0 DUP1 REVERT JUMPDEST POP JUMP JUMPDEST PUSH1 0x0 DUP2 CALLDATALOAD SWAP1 POP PUSH2 0xD4B DUP2 PUSH2 0xD25 JUMP JUMPDEST SWAP3 SWAP2 POP POP JUMP JUMPDEST PUSH1 0x0 DUP1 PUSH1 0x40 DUP4 DUP6 SUB SLT ISZERO PUSH2 0xD68 JUMPI PUSH2 0xD67 PUSH2 0xCB8 JUMP JUMPDEST JUMPDEST PUSH1 0x0 PUSH2 0xD76 DUP6 DUP3 DUP7 ADD PUSH2 0xD06 JUMP JUMPDEST SWAP3 POP POP PUSH1 0x20 PUSH2 0xD87 DUP6 DUP3 DUP7 ADD PUSH2 0xD3C JUMP JUMPDEST SWAP2 POP POP SWAP3 POP SWAP3 SWAP1 POP JUMP JUMPDEST PUSH1 0x0 DUP2 ISZERO ISZERO SWAP1 POP SWAP2 SWAP1 POP JUMP JUMPDEST PUSH2 0xDA6 DUP2 PUSH2 0xD91 JUMP JUMPDEST DUP3 MSTORE POP POP JUMP JUMPDEST PUSH1 0x0 PUSH1 0x20 DUP3 ADD SWAP1 POP PUSH2 0xDC1 PUSH1 0x0 DUP4 ADD DUP5 PUSH2 0xD9D JUMP JUMPDEST SWAP3 SWAP2 POP POP JUMP JUMPDEST PUSH2 0xDD0 DUP2 PUSH2 0xD1B JUMP JUMPDEST DUP3 MSTORE POP POP JUMP JUMPDEST PUSH1 0x0 PUSH1 0x20 DUP3 ADD SWAP1 POP PUSH2 0xDEB PUSH1 0x0 DUP4 ADD DUP5 PUSH2 0xDC7 JUMP JUMPDEST SWAP3 SWAP2 POP POP JUMP JUMPDEST PUSH1 0x0 DUP1 PUSH1 0x0 PUSH1 0x60 DUP5 DUP7 SUB SLT ISZERO PUSH2 0xE0A JUMPI PUSH2 0xE09 PUSH2 0xCB8 JUMP JUMPDEST JUMPDEST PUSH1 0x0 PUSH2 0xE18 DUP7 DUP3 DUP8 ADD PUSH2 0xD06 JUMP JUMPDEST SWAP4 POP POP PUSH1 0x20 PUSH2 0xE29 DUP7 DUP3 DUP8 ADD PUSH2 0xD06 JUMP JUMPDEST SWAP3 POP POP PUSH1 0x40 PUSH2 0xE3A DUP7 DUP3 DUP8 ADD PUSH2 0xD3C JUMP JUMPDEST SWAP2 POP POP SWAP3 POP SWAP3 POP SWAP3 JUMP JUMPDEST PUSH1 0x0 PUSH1 0xFF DUP3 AND SWAP1 POP SWAP2 SWAP1 POP JUMP JUMPDEST PUSH2 0xE5A DUP2 PUSH2 0xE44 JUMP JUMPDEST DUP3 MSTORE POP POP JUMP JUMPDEST PUSH1 0x0 PUSH1 0x20 DUP3 ADD SWAP1 POP PUSH2 0xE75 PUSH1 0x0 DUP4 ADD DUP5 PUSH2 0xE51 JUMP JUMPDEST SWAP3 SWAP2 POP POP JUMP JUMPDEST PUSH1 0x0 PUSH1 0x20 DUP3 DUP5 SUB SLT ISZERO PUSH2 0xE91 JUMPI PUSH2 0xE90 PUSH2 0xCB8 JUMP JUMPDEST JUMPDEST PUSH1 0x0 PUSH2 0xE9F DUP5 DUP3 DUP6 ADD PUSH2 0xD06 JUMP JUMPDEST SWAP2 POP POP SWAP3 SWAP2 POP POP JUMP JUMPDEST PUSH1 0x0 PUSH1 0x20 DUP3 DUP5 SUB SLT ISZERO PUSH2 0xEBE JUMPI PUSH2 0xEBD PUSH2 0xCB8 JUMP JUMPDEST JUMPDEST PUSH1 0x0 PUSH2 0xECC DUP5 DUP3 DUP6 ADD PUSH2 0xD3C JUMP JUMPDEST SWAP2 POP POP SWAP3 SWAP2 POP POP JUMP JUMPDEST PUSH1 0x0 DUP1 PUSH1 0x40 DUP4 DUP6 SUB SLT ISZERO PUSH2 0xEEC JUMPI PUSH2 0xEEB PUSH2 0xCB8 JUMP JUMPDEST JUMPDEST PUSH1 0x0 PUSH2 0xEFA DUP6 DUP3 DUP7 ADD PUSH2 0xD06 JUMP JUMPDEST SWAP3 POP POP PUSH1 0x20 PUSH2 0xF0B DUP6 DUP3 DUP7 ADD PUSH2 0xD06 JUMP JUMPDEST SWAP2 POP POP SWAP3 POP SWAP3 SWAP1 POP JUMP JUMPDEST PUSH32 0x4E487B7100000000000000000000000000000000000000000000000000000000 PUSH1 0x0 MSTORE PUSH1 0x22 PUSH1 0x4 MSTORE PUSH1 0x24 PUSH1 0x0 REVERT JUMPDEST PUSH1 0x0 PUSH1 0x2 DUP3 DIV SWAP1 POP PUSH1 0x1 DUP3 AND DUP1 PUSH2 0xF5C JUMPI PUSH1 0x7F DUP3 AND SWAP2 POP JUMPDEST PUSH1 0x20 DUP3 LT DUP2 SUB PUSH2 0xF6F JUMPI PUSH2 0xF6E PUSH2 0xF15 JUMP JUMPDEST JUMPDEST POP SWAP2 SWAP1 POP JUMP JUMPDEST PUSH32 0x4E487B7100000000000000000000000000000000000000000000000000000000 PUSH1 0x0 MSTORE PUSH1 0x11 PUSH1 0x4 MSTORE PUSH1 0x24 PUSH1 0x0 REVERT JUMPDEST PUSH1 0x0 PUSH2 0xFAF DUP3 PUSH2 0xD1B JUMP JUMPDEST SWAP2 POP PUSH2 0xFBA DUP4 PUSH2 0xD1B JUMP JUMPDEST SWAP3 POP DUP3 DUP3 ADD SWAP1 POP DUP1 DUP3 GT ISZERO PUSH2 0xFD2 JUMPI PUSH2 0xFD1 PUSH2 0xF75 JUMP JUMPDEST JUMPDEST SWAP3 SWAP2 POP POP JUMP JUMPDEST PUSH32 0x45524332303A2064656372656173656420616C6C6F77616E63652062656C6F77 PUSH1 0x0 DUP3 ADD MSTORE PUSH32 0x207A65726F000000000000000000000000000000000000000000000000000000 PUSH1 0x20 DUP3 ADD MSTORE POP JUMP JUMPDEST PUSH1 0x0 PUSH2 0x1034 PUSH1 0x25 DUP4 PUSH2 0xC11 JUMP JUMPDEST SWAP2 POP PUSH2 0x103F DUP3 PUSH2 0xFD8 JUMP JUMPDEST PUSH1 0x40 DUP3 ADD SWAP1 POP SWAP2 SWAP1 POP JUMP JUMPDEST PUSH1 0x0 PUSH1 0x20 DUP3 ADD SWAP1 POP DUP2 DUP2 SUB PUSH1 0x0 DUP4 ADD MSTORE PUSH2 0x1063 DUP2 PUSH2 0x1027 JUMP JUMPDEST SWAP1 POP SWAP2 SWAP1 POP JUMP JUMPDEST PUSH32 0x45524332303A20617070726F76652066726F6D20746865207A65726F20616464 PUSH1 0x0 DUP3 ADD MSTORE PUSH32 0x7265737300000000000000000000000000000000000000000000000000000000 PUSH1 0x20 DUP3 ADD MSTORE POP JUMP JUMPDEST PUSH1 0x0 PUSH2 0x10C6 PUSH1 0x24 DUP4 PUSH2 0xC11 JUMP JUMPDEST SWAP2 POP PUSH2 0x10D1 DUP3 PUSH2 0x106A JUMP JUMPDEST PUSH1 0x40 DUP3 ADD SWAP1 POP SWAP2 SWAP1 POP JUMP JUMPDEST PUSH1 0x0 PUSH1 0x20 DUP3 ADD SWAP1 POP DUP2 DUP2 SUB PUSH1 0x0 DUP4 ADD MSTORE PUSH2 0x10F5 DUP2 PUSH2 0x10B9 JUMP JUMPDEST SWAP1 POP SWAP2 SWAP1 POP JUMP JUMPDEST PUSH32 0x45524332303A20617070726F766520746F20746865207A65726F206164647265 PUSH1 0x0 DUP3 ADD MSTORE PUSH32 0x7373000000000000000000000000000000000000000000000000000000000000 PUSH1 0x20 DUP3 ADD MSTORE POP JUMP JUMPDEST PUSH1 0x0 PUSH2 0x1158 PUSH1 0x22 DUP4 PUSH2 0xC11 JUMP JUMPDEST SWAP2 POP PUSH2 0x1163 DUP3 PUSH2 0x10FC JUMP JUMPDEST PUSH1 0x40 DUP3 ADD SWAP1 POP SWAP2 SWAP1 POP JUMP JUMPDEST PUSH1 0x0 PUSH1 0x20 DUP3 ADD SWAP1 POP DUP2 DUP2 SUB PUSH1 0x0 DUP4 ADD MSTORE PUSH2 0x1187 DUP2 PUSH2 0x114B JUMP JUMPDEST SWAP1 POP SWAP2 SWAP1 POP JUMP JUMPDEST PUSH32 0x45524332303A20696E73756666696369656E7420616C6C6F77616E6365000000 PUSH1 0x0 DUP3 ADD MSTORE POP JUMP JUMPDEST PUSH1 0x0 PUSH2 0x11C4 PUSH1 0x1D DUP4 PUSH2 0xC11 JUMP JUMPDEST SWAP2 POP PUSH2 0x11CF DUP3 PUSH2 0x118E JUMP JUMPDEST PUSH1 0x20 DUP3 ADD SWAP1 POP SWAP2 SWAP1 POP JUMP JUMPDEST PUSH1 0x0 PUSH1 0x20 DUP3 ADD SWAP1 POP DUP2 DUP2 SUB PUSH1 0x0 DUP4 ADD MSTORE PUSH2 0x11F3 DUP2 PUSH2 0x11B7 JUMP JUMPDEST SWAP1 POP SWAP2 SWAP1 POP JUMP JUMPDEST PUSH32 0x45524332303A207472616E736665722066726F6D20746865207A65726F206164 PUSH1 0x0 DUP3 ADD MSTORE PUSH32 0x6472657373000000000000000000000000000000000000000000000000000000 PUSH1 0x20 DUP3 ADD MSTORE POP JUMP JUMPDEST PUSH1 0x0 PUSH2 0x1256 PUSH1 0x25 DUP4 PUSH2 0xC11 JUMP JUMPDEST SWAP2 POP PUSH2 0x1261 DUP3 PUSH2 0x11FA JUMP JUMPDEST PUSH1 0x40 DUP3 ADD SWAP1 POP SWAP2 SWAP1 POP JUMP JUMPDEST PUSH1 0x0 PUSH1 0x20 DUP3 ADD SWAP1 POP DUP2 DUP2 SUB PUSH1 0x0 DUP4 ADD MSTORE PUSH2 0x1285 DUP2 PUSH2 0x1249 JUMP JUMPDEST SWAP1 POP SWAP2 SWAP1 POP JUMP JUMPDEST PUSH32 0x45524332303A207472616E7366657220746F20746865207A65726F2061646472 PUSH1 0x0 DUP3 ADD MSTORE PUSH32 0x6573730000000000000000000000000000000000000000000000000000000000 PUSH1 0x20 DUP3 ADD MSTORE POP JUMP JUMPDEST PUSH1 0x0 PUSH2 0x12E8 PUSH1 0x23 DUP4 PUSH2 0xC11 JUMP JUMPDEST SWAP2 POP PUSH2 0x12F3 DUP3 PUSH2 0x128C JUMP JUMPDEST PUSH1 0x40 DUP3 ADD SWAP1 POP SWAP2 SWAP1 POP JUMP JUMPDEST PUSH1 0x0 PUSH1 0x20 DUP3 ADD SWAP1 POP DUP2 DUP2 SUB PUSH1 0x0 DUP4 ADD MSTORE PUSH2 0x1317 DUP2 PUSH2 0x12DB JUMP JUMPDEST SWAP1 POP SWAP2 SWAP1 POP JUMP JUMPDEST PUSH32 0x45524332303A207472616E7366657220616D6F756E7420657863656564732062 PUSH1 0x0 DUP3 ADD MSTORE PUSH32 0x616C616E63650000000000000000000000000000000000000000000000000000 PUSH1 0x20 DUP3 ADD MSTORE POP JUMP JUMPDEST PUSH1 0x0 PUSH2 0x137A PUSH1 0x26 DUP4 PUSH2 0xC11 JUMP JUMPDEST SWAP2 POP PUSH2 0x1385 DUP3 PUSH2 0x131E JUMP JUMPDEST PUSH1 0x40 DUP3 ADD SWAP1 POP SWAP2 SWAP1 POP JUMP JUMPDEST PUSH1 0x0 PUSH1 0x20 DUP3 ADD SWAP1 POP DUP2 DUP2 SUB PUSH1 0x0 DUP4 ADD MSTORE PUSH2 0x13A9 DUP2 PUSH2 0x136D JUMP JUMPDEST SWAP1 POP SWAP2 SWAP1 POP JUMP JUMPDEST PUSH32 0x45524332303A206D696E7420746F20746865207A65726F206164647265737300 PUSH1 0x0 DUP3 ADD MSTORE POP JUMP JUMPDEST PUSH1 0x0 PUSH2 0x13E6 PUSH1 0x1F DUP4 PUSH2 0xC11 JUMP JUMPDEST SWAP2 POP PUSH2 0x13F1 DUP3 PUSH2 0x13B0 JUMP JUMPDEST PUSH1 0x20 DUP3 ADD SWAP1 POP SWAP2 SWAP1 POP JUMP JUMPDEST PUSH1 0x0 PUSH1 0x20 DUP3 ADD SWAP1 POP DUP2 DUP2 SUB PUSH1 0x0 DUP4 ADD MSTORE PUSH2 0x1415 DUP2 PUSH2 0x13D9 JUMP JUMPDEST SWAP1 POP SWAP2 SWAP1 POP JUMP INVALID LOG2 PUSH5 0x6970667358 0x22 SLT KECCAK256 CODESIZE JUMPI 0x4D PUSH28 0x78374D5F47A1C30BD00B03A22683B81E013510B24D53BE34577B359B PUSH5 0x736F6C6343 STOP ADDMOD SLT STOP CALLER LOG2 PUSH5 0x6970667358 0x22 SLT KECCAK256 0x4C PUSH26 0x52CFDBDA67182AB36B39CA94B2AD4CD4152A80476DD01DFC8F7A SWAP1 0xB6 0xED 0xAF PUSH5 0x736F6C6343 STOP ADDMOD SLT STOP CALLER "},"methodIdentifiers":{"buyToken(string,uint256)":"09be7707","createICO(string,string,uint256,uint256,uint256)":"1fa5846f","owner()":"8da5cb5b","projectInfo(string)":"5e753545","renounceOwnership()":"715018a6","transferOwnership(address)":"f2fde38b","withdrawFunds(string)":"03b86b5a","withdrawOwner(string)":"cb309094"}}}}}